:020000041000EA
:1000000000B5324B212058609868022188439860DF
:10001000D860186158612E4B002199600221596106
:100020000121F02299502B49196001219960352056
:1000300000F044F80222904214D00621196600F024
:1000400034F8196E01211966002018661A6600F04E
:100050002CF8196E196E196E052000F02FF8012189
:100060000842F9D1002199601B49196000215960AB
:100070001A491B48016001219960EB211966A021F2
:10008000196600F012F800219960164914480160C1
:100090000121996001BC002800D000471248134993
:1000A000086003C880F30888084703B5996A0420EC
:1000B0000142FBD001200142F8D103BD02B5186610
:1000C0001866FFF7F2FF186E186E02BD00000240BE
:1000D000000000180000070000035F00212200005C
:1000E000F4000018222000A00001001008ED00E03C
:1000F00000000000000000000000000074B24E7A12
:1001000000200420F7010010C3010010C5010010F9
:10011000C1010010C1010010C1010010C101001097
:10012000C1010010C1010010C1010010C701001081
:10013000C1010010C1010010C9010010CB01001065
:10014000CD010010CD010010CD010010CD01001037
:10015000CD010010CD010010CD010010CD01001027
:10016000CD010010CD010010CD010010CD01001017
:10017000CD010010CD010010CD010010CD01001007
:10018000CD010010CD010010CD010010CD010010F7
:10019000CD010010CD010010CD010010CD010010E7
:1001A000CD010010CD010010CD010010CD010010D7
:1001B000CD010010CD010010CD010010CD010010C7
:1001C00000BE00BE00BE00BE00BE00BEEFF3058054
:1001D000103800BEF2EB8871705705109C5705105F
:1001E0003402001090A31AE700201F49086006C8D7
:1001F00081F3088810471D48006800282FD10DA4FE
:100200000ECC002902D000F012F8F9E71849194A7B
:10021000002000E001C19142FCD1174988471749ED
:1002200088471749884700BEFDE701C901C29A42C5
:10023000FBD370479C570510C0000020C813002056
:10024000C46A05100000042000000420C46A0510E0
:10025000001004200010042000000000704709482E
:1002600005F00EFB0047000008ED00E0000000D0A4
:10027000E8130020A4C800206D4701105916001093
:10028000294701105756000006005250ABB3605387
:100290004855051006005250861C0302585505109B
:1002A000060052505422A29D705505100500525070
:1002B000DE65F468C46A0510F8B5C04610B5064C92
:1002C0002378002B07D1054B002B02D0044800E017
:1002D00000BF0123237010BD201500200000000086
:1002E00018810110044B10B5002B03D003490448BA
:1002F00000E000BF10BDC046000000002415002033
:1003000018810110030000091B011843C0B28208C4
:100310003323134080003322904340B20343DBB2C7
:100320005A08552002405B0055218B4358B21043B8
:10033000C0B2704710B5002406E0064B185DFFF709
:10034000E1FF054B1855013494235B009C42F4D324
:1003500010BDC0467886011044150020F8B5050090
:100360000F0014001E001A4B1B78002B19D0782F99
:100370002CDC382C2ADCE217072111400C19E41080
:10038000300017F0AFFDC3B21A00413AD2B2192AB9
:100390000AD9303BDBB2092B0DD8FF260640153EAB
:1003A00005E0FFF7C7FFE2E7FF260640403EE10118
:1003B000C919002308E00026F9E7F200D218044822
:1003C000825C6A5401330131072BF6DDF8BDC0466B
:1003D00044150020F8B507000C0016001D00782910
:1003E0000DDC382A08DD0AE0013532002100380032
:1003F000FFF7B4FF083424B22B78002BF4D1F8BDFA
:1004000070B5050013F0E0FFA022920030213620E5
:1004100008F014FC0400466830220021300015F07A
:10042000B7FF1B233370A86860332A0021000CF04B
:10043000BDFF200008F0C4FB13F0D0FF70BD00002A
:1004400070B52021012015F085FF041E0BD02E2051
:100450000DF064F8051EA06009D0220008490DF0D7
:1004600021F8200070BD074816F02EF9F9E706487C
:1004700016F02AF9200015F07FFF2C00F1E7C046A6
:1004800099050010CC810110E881011030B585B0CC
:1004900004001000002913D1002A11D016F09CFF8F
:1004A00043691E4A9446634402690132C168056883
:1004B00002954568019580680090194816F034F956
:1004C000A569002D12DC06F05BFD02000B1E15DB9A
:1004D0001448002112184B41002B15DB002B17DBB1
:1004E000226163610023237105B030BD06F0A8FAD4
:1004F000290006F06FFB0023A361E4E70A4B0B4AD7
:100500003F210B4814F014F901225242094BE5E750
:10051000054B064A3F21064814F00AF96C07000013
:100520000082011080C3C901348201105082011081
:1005300088820110FFFFFF7F10B50800140000291A
:100540000BD00B6813600FF0D1FF0100084816F0C4
:10055000EBF82000FFF754FF10BD064816F0B4F882
:100560000121002249422000FFF790FFF4E7C04636
:10057000C8820110D882011010B50C00054816F091
:10058000A3F80121002249422000FFF77FFF00204D
:10059000002110BDF0820110F0B5C64600B582B052
:1005A000050014001E0008AB1F880021100008F091
:1005B00017FE0723034098460121200008F010FE93
:1005C00033682A68934201D17B2F0FD01A4816F066
:1005D0007BF80121002249422800FFF757FF200045
:1005E00008F0EEFA02B080BCB846F0BD2389302B8B
:1005F000ECD14346042BE9D10028E7D001AE002717
:100600000197243304223100200008F0EBFC3378FA
:100610001B06727812041343B27812021343F27865
:100620001343064A94466344054A13605760002109
:100630002800FFF72BFFD2E7048301108081557C4F
:100640001015002043780178591A0131C278837857
:10065000D31A01334B4343607047000000B585B0A7
:1006600003AA00231380802111705070009302337D
:100670004439024816F0B8FA05B000BD500B00200E
:1006800070B506000D00002403E0305DFFF7E6FFC3
:100690000134AC42F9DB70BDF0B583B006000D004B
:1006A0004F1C380015F044FE040040230370013055
:1006B0002A00310015F072FE002300933B00220057
:1006C0003C21044816F090FA200015F055FE03B0C6
:1006D000F0BDC046500B002030B589B001A80749D5
:1006E00003000A0032CA32C332CA32C312881A80E7
:1006F0001A21FFF7C5FF09B030BDC04600860110C2
:1007000030B583B005000C0006220021684615F0C4
:100710003FFE21236A4613700133D3702378537050
:1007200063789370A3781371E37853710621684658
:10073000FFF7A6FF61682800FFF7AEFF03B030BDEA
:10074000F0B585B0041E26D118E0344B344A3F2161
:10075000344813F0EDFF314B314A3F21314813F05B
:10076000E7FF01225242304B31E02C4B2C4A3F2113
:100770002C4813F0DDFF2000FFF742FE05B0F0BD6E
:100780000FF0E8FF2379002B46D1230010331868BF
:1007900059680FF0EBFF06F0F3FB02000B1ED4DBF1
:1007A00020696169801A99410029E9DA2379002BCF
:1007B000E6D106F045F9050006F0E2FB06000F1E43
:1007C000C9DB1A4A002392197B41002BC9DB002B9D
:1007D000CBDB01260296019415490091280006F012
:1007E00045F9A06113F0F0FD2300124A21001248E0
:1007F00007F08EFD050013F0F1FD2671002DBAD033
:100800006B1DBDD00D4815F05FFF0121002249424C
:100810002000FFF73BFEB3E7094BB8E73482011035
:100820005082011088820110FFFFFF7F80969800A0
:1008300079050010390500101C830110DC820110BD
:1008400088A7011010B5040018230022002101F030
:1008500093F9200001F0A3F910BD0000F0B5D646D1
:100860004F464646C0B58EB004000D0016009A46AD
:100870000B2A00D90C3EDE4B1A68EFF3108172B6DA
:100880001368002BFCD0BFF35F8FD94B596002ABCC
:100890009846220083CA83C383CA83C34046FFF7B6
:1008A000D1FF404601F03CF808AB98462A0083CAC5
:1008B00083C383CA83C34046FFF7C4FF404601F0A9
:1008C0002FF8182300220021200001F055F91823E9
:1008D00000220021280001F04FF953461E2B28D892
:1008E00000239946002398460093143300221221D6
:1008F000200001F037F94346009314330022002111
:10090000200001F02FF94346009314330022062102
:10091000200001F027F943460093143300220C21F4
:10092000200001F01FF90B2E0ED8B600B14B9B59D9
:100930009F4601239946D5E749461031002300938D
:100940004022280001F00EF953463B2B6DD89F0042
:10095000A94BDB599F4649461231002300934022A0
:10096000280001F0FFF8EFE7494614310023009317
:100970004022280001F0F6F8E6E749461631002348
:1009800000934022280001F0EDF8DDE700230093FA
:1009900040224946280001F0E5F8D5E749460231F2
:1009A000002300934022280001F0DCF8CCE7494600
:1009B0000431002300934022280001F0D3F8C3E75C
:1009C00049460631002300934022280001F0CAF86E
:1009D000BAE749460831002300934022280001F07D
:1009E000C1F8B1E749460A310023009340222800AC
:1009F00001F0B8F8A8E749460C31002300934022E3
:100A0000280001F0AFF89FE749460E31002300931C
:100A10004022280001F0A6F896E740230093002327
:100A200000221221200001F09DF8200001F0B7F80B
:100A3000280001F0B4F86E4B1A685B68BFF35F8F53
:100A40000021116083F310880EB0E0BCBA46B146B5
:100A5000A846F0BD14230093002300221221200099
:100A600001F080F8032300930023002213212000CB
:100A700001F078F8D9E70F23009300230022122118
:100A8000200001F06FF808230093002300221321B7
:100A9000200001F067F8C8E7082300930023002234
:100AA0001221200001F05EF80F23009300230022A2
:100AB0001321200001F056F8B7E703230093002329
:100AC00000221221200001F04DF81423009300238E
:100AD00000221321200001F045F8A6E740230093EF
:100AE000002300221421200001F03CF89DE714238C
:100AF0000093002300221421200001F033F8032387
:100B00000093002300221521200001F02BF88CE730
:100B10000F230093002300221421200001F022F86B
:100B200008230093002300221521200001F01AF869
:100B30007BE708230093002300221421200001F00A
:100B400011F80F230093002300221521200001F04B
:100B500009F86AE7032300930023002214212000F0
:100B600001F000F814230093002300221521200037
:100B700000F0F8FF59E740230093002300221621DC
:100B8000200000F0EFFF50E7142300930023002221
:100B90001621200000F0E6FF03230093002300222B
:100BA0001721200000F0DEFF3FE70F230093002312
:100BB00000221621200000F0D5FF08230093002317
:100BC00000221721200000F0CDFF2EE7082300931C
:100BD000002300221621200000F0C4FF0F23009301
:100BE000002300221721200000F0BCFF1DE7C046B3
:100BF000D8C500202C8301105C83011003230093CF
:100C0000002300221621200000F0ACFF14230093E3
:100C1000002300221721200000F0A4FF05E7402355
:100C20000093002300220021200000F09BFFFCE63F
:100C300014230093002300220021200000F092FFE3
:100C400003230093002300220121200000F08AFFEB
:100C5000EBE60F230093002300220021200000F088
:100C600081FF08230093002300220121200000F0CF
:100C700079FFDAE6082300930023002200212000F8
:100C800000F070FF0F2300930023002201212000B9
:100C900000F068FFC9E6032300930023002200212F
:100CA000200000F05FFF14230093002300220121A5
:100CB000200000F057FFB8E64023009300230022F5
:100CC0000221200000F04EFFAFE614230093002322
:100CD00000220221200000F045FF0323009300239F
:100CE00000220321200000F03DFF9EE60F23009329
:100CF000002300220221200000F034FF082300938B
:100D0000002300220321200000F02CFF8DE60823A1
:100D10000093002300220221200000F023FF0F2374
:100D20000093002300220321200000F01BFF7CE63B
:100D300003230093002300220221200000F012FF71
:100D400014230093002300220321200000F00AFF57
:100D50006BE640230093002300220421200000F0D2
:100D600001FF62E6142300930023002204212000E7
:100D700000F0F8FE03230093002300220521200049
:100D800000F0F0FE51E60F2300930023002204211F
:100D9000200000F0E7FE0823009300230022052135
:100DA000200000F0DFFE40E608230093002300222D
:100DB0000421200000F0D6FE0F2300930023002220
:100DC0000521200000F0CEFE2FE603230093002330
:100DD00000220421200000F0C5FE1423009300230C
:100DE00000220521200000F0BDFE1EE640230093F6
:100DF000002300220621200000F0B4FE15E6142393
:100E00000093002300220621200000F0ABFE032304
:100E10000093002300220721200000F0A3FE04E637
:100E20000F230093002300220621200000F09AFEE9
:100E300008230093002300220721200000F092FEE7
:100E4000F3E508230093002300220621200000F090
:100E500089FE0F230093002300220721200000F0C9
:100E600081FEE2E5032300930023002206212000F7
:100E700000F078FE142300930023002207212000B5
:100E800000F070FED1E540230093002300220821EA
:100E9000200000F067FEC8E5142300930023002221
:100EA0000821200000F05EFE0323009300230022AF
:100EB0000921200000F056FEB7E50F230093002320
:100EC00000220821200000F04DFE0823009300239B
:100ED00000220921200000F045FEA6E5082300932A
:100EE000002300220821200000F03CFE0F23009385
:100EF000002300220921200000F034FE95E50323A1
:100F00000093002300220821200000F02BFE142370
:100F10000093002300220921200000F023FE84E535
:100F200040230093002300220A21200000F01AFE33
:100F30007BE514230093002300220A21200000F007
:100F400011FE03230093002300220B21200000F058
:100F500009FE6AE50F230093002300220A212000E6
:100F600000F000FE08230093002300220B21200044
:100F700000F0F8FD59E508230093002300220A2120
:100F8000200000F0EFFD0F230093002300220B212F
:100F9000200000F0E7FD48E5032300930023002232
:100FA0000A21200000F0DEFD14230093002300221C
:100FB0000B21200000F0D6FD37E5402300930023ED
:100FC00000220C21200000F0CDFD2EE5142300931B
:100FD000002300220C21200000F0C4FD0323009315
:100FE000002300220D21200000F0BCFD1DE50F2391
:100FF0000093002300220C21200000F0B3FD082301
:101000000093002300220D21200000F0ABFD0CE531
:1010100008230093002300220C21200000F0A2FDF1
:101020000F230093002300220D21200000F09AFDE1
:10103000FBE403230093002300220C21200000F096
:1010400091FD14230093002300220D21200000F0C5
:1010500089FDEAE440230093002300220E212000B2
:1010600000F080FDE1E414230093002300220E2110
:10107000200000F077FD03230093002300220F21BE
:10108000200000F06FFDD0E40F2300930023002226
:101090000E21200000F066FD0823009300230022AB
:1010A0000F21200000F05EFDBFE408230093002321
:1010B00000220E21200000F055FD0F230093002395
:1010C00000220F21200000F04DFDAEE40323009329
:1010D000002300220E21200000F044FD1423009381
:1010E000002300220F21200000F03CFD9DE440235E
:1010F0000093002300221021200000F033FD94E42F
:1011000014230093002300221021200000F02AFD68
:1011100003230093002300221121200000F022FD70
:1011200083E40F230093002300221021200000F00D
:1011300019FD08230093002300221121200000F054
:1011400011FD72E4082300930023002210212000E7
:1011500000F008FD0F23009300230022112120003E
:1011600000F000FD61E4032300930023002210211E
:10117000200000F0F7FC142300930023002211212B
:10118000200000F0EFFC50E4F0B5DE4657464E4636
:101190004546E0B5A3B0040088460392804F802204
:1011A000D2000021380015F0F3F87E493800FFF72F
:1011B000A7FA11AE7C4B320023CB23C21B881380CD
:1011C0003300002205213800FFF704F923690133B9
:1011D000626976498C4662440092E2687449300044
:1011E00014F0F2FB3300082205213800FFF7F2F873
:1011F000236800936368A2686E49300014F0E4FB32
:101200003300102205213800FFF7E4F86A4B320062
:1012100003CB03C2198811809B7893703300182286
:1012200005213800FFF7D6F864493422243104A898
:1012300015F0B4F8636999469B0701D11D23069305
:101240002369990004AA8958E26892465A1C934679
:10125000A268571C172F12DD01229446E2448A002F
:1012600004A81258924509D902339B460C2B24DD61
:101270000123E1449B469A46002700E00027D02343
:101280001B065B681B0B0122100018401A4219D084
:101290000137172F16DD01239C46E244890004AB79
:1012A000CB589A450DD9E3445B460C2B6CDD0123EA
:1012B000E1449B469A46002704E001239A46002712
:1012C000DDE70027002863D011AA3D4B23CB23C2C2
:1012D00011001A880A809B788B7011AE304D330054
:1012E000202205212800FFF775F8304B4B4400936E
:1012F0005B4652462E49300014F066FB330028222C
:1013000005212800FFF766F82368009363683A0018
:101310002849300014F058FB330030220521280002
:10132000FFF758F8244B320003CB03C21988118011
:101330009B7893703300382205212800FFF74AF884
:1013400018492800FFF7DCF916AE3300454607CDF3
:1013500007C307CD07C39846039A23CA23C323CAEA
:1013600023C363683A0041463000FFF777FA4046EE
:1013700000F0D6FA300000F0D3FA23B0F0BCBB4640
:10138000B246A946A046F0BD01239A46002799E738
:1013900011AA0C4B23CB23C21B8813809DE7C046A8
:1013A000BC180020200700204C8401106C070000AE
:1013B0005C8401106C8401107C8401100086011093
:1013C0008884011098840110F0B5D6464F464646F1
:1013D000C0B58CB080468A460023994605E00A20B5
:1013E00005F01AFD01239C46E1444B460C2B20D806
:1013F00000263B2EF3D86C462300424623CA23C363
:1014000023CA23C31D00524683CA83C383CA83C32E
:1014100033004A4629002000FFF720FA280000F098
:101420007FFA200000F07CFA0A2005F0F5FC013676
:10143000DFE70CB0E0BCBA46B146A846F0BD0000FC
:10144000F0B5C64600B5B0B005000C003E4815F03A
:101450003BF9E84643462A0083CA83C383CA83C351
:101460001F00220043CA43C343CA43C300230322CD
:1014700039004046FFF7F2F9380000F051FA4046D3
:1014800000F04EFAFA2005F0C7FC304815F01CF9C0
:101490000CAB98462A0083CA83C383CA83C31F0048
:1014A000220043CA43C343CA43C300230622390070
:1014B0004046FFF7D3F9380000F032FA404600F01A
:1014C0002FFAFA2005F0A8FC214815F0FDF818AB1A
:1014D00098462A0083CA83C383CA83C31F0022009D
:1014E00043CA43C343CA43C30023092239004046C9
:1014F000FFF7B4F9380000F013FA404600F010FA94
:10150000FA2005F089FC134815F0DEF824AE33000C
:1015100007CD07C307CD07C31D0007CC07C307CC02
:1015200007C30023002229003000FFF797F92800A5
:1015300000F0F6F9300000F0F3F9FA2005F06CFC49
:1015400030B080BCB846F0BDA8840110B88401104A
:10155000C8840110D884011030B5344CA54401AAC8
:10156000334B03CB03C21B78137001F021FA041E26
:1015700025D001222F499AA802F032FE011E25D162
:10158000012201A904A802F059FE011E23D101A9DC
:10159000294815F0C9F8294D04AA1421280002F0A1
:1015A000BDFF280015F0C0F80023132B1BDC234AD5
:1015B000D25C0D2A14D00A2A12D00133F5E7204854
:1015C00015F082F820001F4B9D4430BD1E4815F0D9
:1015D000ABF80024F6E71D4815F0A6F80024F1E763
:1015E000164A0021D1541A4D04AA1421280002F0F1
:1015F00095FF280015F098F80023132B0ADC144AF5
:10160000D25C0D2A03D00A2A01D00133F5E7104A33
:101610000021D1540F4815F057F804A802F071FFCB
:1016200000220449002002F0DBFDCBE734FBFFFF82
:10163000808501101085011064850110400700208D
:10164000E8840110CC0400001485011040850110CD
:10165000280700200C8F011070B5D2B015F070F87B
:101660009C4804F083FE0C2004F012FBD0231B06E0
:10167000802252019A62FFF76FFF04000FF070F9A9
:10168000002846D10FF040F8002C4BD0924B934AE3
:10169000934994480FF002F90500002D4AD1924970
:1016A000924815F075FA0321062004F01DFA032173
:1016B000072004F019FA00220121062004F02CFA78
:1016C00000220121072004F027FAFFF705F8884ED1
:1016D0003000FEF7B7FF874C8022D20000212000A7
:1016E00014F056FE31002000FFF70AF82C00022CFF
:1016F0002EDCA520FEF7B2FFFA267600300005F0BA
:101700008BFBA420FEF7AAFF300005F085FB013417
:10171000EDE7794814F0D8FF784805F07DFB00200C
:1017200052B070BD6C4B6D4A754976480FF0B6F8F3
:101730000500B2E72900744814F0F6FF714814F070
:10174000F3FF6F4814F0F0FF6C4805F065FBE6E727
:101750000EA96E4B58330A0013CB13C213CB13C21E
:1017600003CB03C22C00072C0AD8A2000EABD3581F
:101770002AB205215F48FEF72DFE08350134F2E755
:101780005B495C48FEF7BCFF642005F045FB022185
:101790005F4812F0CFFA002800D093E05C4C0123A0
:1017A000019301330093230018220E2108A800F0B2
:1017B00071F90321200012F0BDFA002800D085E065
:1017C0000123019302330093514B18220F2102A8E9
:1017D00000F060F91824220008A916A814F0DEFD14
:1017E000220002A91CA814F0D9FD1CA916A8FFF715
:1017F000EBFD1CA800F094F816A800F091F8220068
:1018000008A922A814F0CAFD22A8FFF71BF822A8F5
:1018100000F086F8220002A928A814F0BFFD28A82D
:10182000FFF710F828A800F07BF8220008A92EA8DE
:1018300014F0B4FD220002A934A814F0AFFD34A9BD
:101840002EA8FFF7FDFD34A800F06AF82EA800F0DE
:1018500067F8220008A93AA814F0A0FD3AA8FEF7FC
:10186000F1FF3AA800F05CF8220002A940A814F0A9
:1018700095FD40A8FEF7E6FF40A800F051F8FEF7FE
:10188000DFFD05002800FEF75BFF224815F0A4FDF0
:101890000400182208A946A814F080FD182202A905
:1018A0004CA814F07BFD4CAA46A92000FFF76CFC65
:1018B0004CA800F035F846A800F032F80F4805F0C3
:1018C000ABFADFE7144814F0FFFE67E7134814F0A3
:1018D000FBFE75E7D8C5002010270000040040007B
:1018E0002807002040070020801A0600500B002027
:1018F00020070020BC1800208C850110B80B0000C8
:10190000A4850110AC850110B4850110008601107A
:101910000000205010150020D8850110EC85011022
:1019200070470000F0B5DE4657464E464546E0B5E6
:1019300087B004000E001D0010AB80CB1B789846CA
:1019400012AB1B789B4613AB1B789A4614AB1B78E3
:101950009946016042608560C760494B9A4200D950
:1019600083E0900014F020FD6061434623745B46E1
:1019700063745346A3744B46E3744249280012F043
:10198000FDF904004346002B00D071E0183398465F
:101990003D4B9D426FD00721300004F0A5F8012394
:1019A000009332003900280012F07EFA1022002144
:1019B00002A814F0EDFC80235B020293F8235B0283
:1019C00003938023DB020493C0231B030493E31CD3
:1019D000E1011B030B4303938021890505912B4AE9
:1019E00013400393B6020E43059643465B06F82266
:1019F00092051340C022D202134304938022D205E1
:101A000013430493052004F069F814F019FC2049ED
:101A100014F0FBFB804614F03BFC86B2002E2CD069
:101A2000300014F00DFC011C404614F0E8FB872147
:101A3000C90514F0FEFB14F02BFCC0B20002360402
:101A40000643029602AB22003900280012F07EFA0B
:101A50002A680123BB409A4313432B6007B0F0BCB4
:101A6000BB46B246A946A046F0BD0120404279E7F8
:101A7000202398468CE706218EE70020DEE7C0464B
:101A8000FEFFFF1FB487011000002050FFFFFF9FE3
:101A90000024F44A30B587B004000AA820C80078B2
:101AA000012813D002281ED0002802D0200007B041
:101AB00030BD0330049001380390013802900020BB
:101AC000019000952000FFF72DFFEFE70320049021
:101AD0000238039001300290002001900095200010
:101AE000FFF720FFE2E7032004900138039001385C
:101AF00002900330019000952000FFF713FFD5E717
:101B000030B504000022002009E0042B05D10B0EA3
:101B1000184302E0FF230B40184300020132032A5E
:101B200012D8A3181B7C032B09D0EED8012BF1D0BF
:101B3000022BF2D10D0AFF232B401843EDE70D0CC9
:101B4000FF232B401843E8E730BD10B543688B42B4
:101B500007D98C0043699C4664441100FFF7D0FF0D
:101B6000206010BD10B502AC247824041B021C4375
:101B70002243FFF7EAFF10BD70B505001400D3182B
:101B800046689E4200D31E002800FFF7B9FF03E01D
:101B9000A3006A69D0500134A642F9D870BDF0B5EF
:101BA000050000266B68B34210D9AC68E868B30042
:101BB0006A69D75862680100103101238B401342D3
:101BC000F8D1031D9B001F510136EBE7F0BDF0B5C6
:101BD000050001318E1A002100200DE05718FC0885
:101BE0000F231B1B07243C40EB5C23411C000123FB
:101BF00023408B4018430131B142EFD3F0BD0000C8
:101C00000123C361A7239B00044AC2500433044A42
:101C1000C2500433034AC2507047C046C92800105E
:101C200049280010CD24001010B50400C36A002B11
:101C300004D020002C3016F05FFA10BDB821034B01
:101C4000034A4900034803F057F8F2E7C48701103C
:101C5000CC8F0110E887011010B50400FFF7E4FFF6
:101C6000200002F067FF10BDF0B583B006000F0042
:101C70003F230B4040210B4369460B70130E4B7002
:101C8000130C8B70130ACB700A710521684602F0A1
:101C9000E9FF4000012318436B465871002405E01A
:101CA0006B46195D300002F05BFF0134052CF7DD57
:101CB0000C2F0BD000240F2C0DDCFF21300002F084
:101CC0004FFF0500030606D50134F4E7FF2130007D
:101CD00002F046FFEEE7280003B0F0BD10B50400A7
:101CE000C36A002B04D020002C3016F0D5F910BDAB
:101CF000BA21034B034A4900034802F0FDFFF2E713
:101D0000C4870110948F0110E887011010B50400FA
:101D1000FFF7E4FF200002F015FF10BDF8B5060044
:101D20000F0005F02DF904000D1E20DB1C4A0023D6
:101D3000A4185D41002D20DB002D22DBFF213000A7
:101D400002F00EFFB84228D005F01AF902000B1E6F
:101D50001DDB20002900801A99410029EEDC01D109
:101D60000028EBD10F4802F0A1FF002016E00E4B37
:101D70000E4A3F210E4812F0DBFC012464420D4D57
:101D8000DAE7094B094A3F21094812F0D1FC064B1A
:101D9000064A3F21064812F0CBFC0120F8BDC046A0
:101DA00080841E003488011034820110A08F01103D
:101DB00088820110FFFFFF7FF0B5C64600B5060020
:101DC00088461700FE21FFF7A9FF002801D0002454
:101DD0000FE0C42292001749174802F067FF174826
:101DE0001DE043461D19FF21300002F0B9FE2870A6
:101DF0000134BC42F5D3FF21300002F0B1FE84B2C1
:101E00002402A4B2FF21300002F0AAFE80B20443F3
:101E10003900404602F036FFA04203D1002080BCCA
:101E2000B846F0BD02002100054802F03FFF05481A
:101E3000F5E7C046E88701105088011070ECFFFFFD
:101E4000688801106FECFFFFF8B505000E00170061
:101E5000FE21FFF763FF00281CD03B003200002169
:101E6000280002F077FE002824D0FF21280002F08D
:101E700077FE84B22402A4B2FF21280002F070FE93
:101E800080B204433900300002F0FCFEA04209D1C8
:101E90000020F8BDCC2292000749084802F006FF56
:101EA0000748F6E7030022000649074802F0FEFE55
:101EB0000648EEE70248ECE7E88701105088011079
:101EC00070ECFFFF648F0110B08801106FECFFFF12
:101ED000F0B5C64600B580460C0005F051F8060086
:101EE0000F1E29DBFA22920000232000002114F0AB
:101EF00069F936184F41002F24DB002F26DBFF2124
:101F0000404602F02DFE0400051E0DD105F038F804
:101F100002000B1E20DB30003900801A9941002995
:101F2000EDDC01D10028EAD1002D1BD0631E9C41BD
:101F3000E0B280BCB846F0BD0D4B0E4A3F210E48C2
:101F400012F0F6FB012676420C4FD6E7084B094A01
:101F50003F21094812F0ECFB054B064A3F21064899
:101F600012F0E6FB0649074802F0A0FEDEE7C04695
:101F700034820110A08F011088820110FFFFFF7FC3
:101F8000748F0110F0880110F0B5D6464F464646D2
:101F9000C0B506000D0092469946089F0C2923D132
:101FA000002398464346022B0ADC4B46002B28D1DF
:101FB000524629003000FFF757FE0400FF2833D0B7
:101FC000002F00D03C60FF2C36D0230701D5172D01
:101FD0003AD1630740D4122323424DD14E332342DA
:101FE00059D10023984649E0FA21C900FFF770FF54
:101FF0000028D5D1E72252008049814802F056FEE0
:10200000CEE7002237213000FFF72EFEFA21C9006B
:102010003000FFF75DFF0028CAD1EC22520077495B
:10202000774802F043FEC3E72900764802F03EFEFF
:1020300001239C46E044B5E722002900724802F0E3
:1020400035FE724B98464AE022002900704802F0A3
:102050002DFE704B984642E0172D04D1082D08D074
:102060006D4B98463BE0220029006C4802F01EFEB2
:10207000F4E70423B362F3E7694B98460D2D3AD099
:102080000CDC082D31D00C2D26D1FA21C9003000EE
:10209000FFF71EFF20E0634B9846EFE7262DF4D0B4
:1020A0003A2D19D1FF21300002F05AFD0506FF211B
:1020B000300002F055FD00040543FF21300002F01E
:1020C0004FFD04022C43FF21300002F049FD044380
:1020D0002100554802F0EAFD002F00D03C60404648
:1020E000E0BCBA46B146A846F0BD504802F0DEFD5D
:1020F0000223B362D6E72402FF21300002F030FD54
:102100000443E9D021004A4802F0D0FDE30721D47E
:10211000A30725D4630729D423072DD4E30631D49C
:10212000A30635D4630639D423063DD4E30541D450
:10213000A30545D4630549D423054DD4E30451D404
:10214000A30455D46304C7D53A4802F0AFFD354B1C
:102150009846C1E7384802F0A9FD384B9846D7E7C2
:10216000374802F0A3FD374B9846D3E7364802F0D4
:102170009DFD324B9846CFE7344802F097FD2F4B38
:102180009846CBE7324802F091FD2C4B9846C7E7C2
:10219000304802F08BFD2B4B9846C3E72E4802F0E7
:1021A00085FD1F4B9846BFE72C4802F07FFD1D4B75
:1021B0009846BBE72A4802F079FD00239846B7E726
:1021C000284802F073FD164B9846B3E7264802F004
:1021D0006DFD114B9846AFE7244802F067FD0D4BAB
:1021E0009846ABE7224802F061FD0D4B9846A7E701
:1021F000204802F05BFD0B4B9846A3E7E8870110EF
:10220000FC880110188901103089011073ECFFFF60
:10221000588901106FECFFFF76ECFFFF7C890110FD
:102220006EECFFFF75ECFFFFB8890110A489011067
:10223000C88901103C8C0110D48901106DECFFFF9E
:10224000008A011072ECFFFF2C8A0110588A0110DD
:10225000848A0110B08A0110DC8A0110088B0110F9
:10226000348B0110608B01108C8B0110B88B011026
:10227000E48B0110108C011010B584B00400002311
:102280000393D52203AB0093002352000821FFF7EC
:102290007BFE002802D1A36A022B01D004B010BD3E
:1022A000039A13051B0DD52149008B42F6D0D53971
:1022B0004900034802F0FAFC0423A3620148EDE759
:1022C000688C011071ECFFFFF0B5C64600B586B012
:1022D00004000023009300220921FFF755FE002887
:1022E0001BD1102202A92000FFF766FD00281FD194
:1022F0007E227F2102A8FFF76AFC00281ED0012859
:1023000054D0364802F0D2FC354B364A364937486D
:1023100002F0F2FC0024002504E0354802F0C6FC7F
:10232000002400252000290006B080BCB846F0BD7E
:10233000304802F0BBFC00240025F3E73E2249218F
:1023400002A8FFF744FC80462F22312102A8FFF7A4
:102350003EFC04005022532102A8FFF738FC012262
:10236000824002344346581CA0400023002113F051
:1023700029FF07000E00CB05440A1C434D0A4146C5
:102380001D4802F093FC0094019522002B001B488D
:1023900002F08CFC32033B0D1343320D009301928B
:1023A0003A003300164802F081FCBBE73022452199
:1023B00002A8FFF70CFC0100441CA40200251148F0
:1023C00002F074FC220000230F4802F06FFCE20AC6
:1023D00000230E4802F06AFCA4E7C046908D01106D
:1023E000AC8D0110B88F0110ED020000E8870110DC
:1023F000908C0110B88C0110E08C0110048D01103C
:10240000208D0110408D0110648D0110788D011018
:10241000F0B583B005000C0010001900089E0027DD
:1024200036184F412A6A6B6A9F4228D825D0EB693B
:102430009B0743D1AB6A032B01D043021800089BD2
:10244000012B1ED900230093020012212800FFF760
:102450009BFD0700002F23D1089E002E1AD080225A
:10246000920021002800FFF7EFFC00281BD18023F9
:102470009B009C466444013EEFE79642D7D9114F3A
:102480000EE000230093020011212800FFF77CFDDD
:102490000700DFE73C00089B012B06D8002C0FD17A
:1024A000380003B0F0BD084CF5E70023009300228C
:1024B0000C212800FFF768FD0700EFE7014FEFE769
:1024C0002700EDE775ECFFFF70ECFFFFF0B583B080
:1024D00004000D0017001E00FFF7BEFB089B0093D1
:1024E0003A00330029002000FFF792FF050020008A
:1024F000FFF70CFC280003B0F0BD000030B585B03C
:1025000004000025092D16DC03AB009300230022F4
:1025100000212000FFF738FD039B012B0BD020008A
:10252000FFF7F4FB0548002104F04AFD2000FFF707
:1025300093FB0135E6E7039805B030BDA0860100A6
:10254000F0B5C64600B584B0050002F0D9FA2800FF
:1025500002F028FB2800FFF7D1FF012855D1280001
:10256000FFF78AFE041E02D04A4B984275D1002321
:10257000009301223B212800FFF706FD03AB0093E7
:10258000002300223A212800FFF7FEFC041E64D13C
:10259000039BDB023ED5AB6A022B3FD0002398465B
:1025A00004F0EEFC06000F1E3CDB3B4A0023B6188D
:1025B0005F41002F3CDB002F3EDB03AB0093012388
:1025C000424629212800FFF7DFFC0400039BDB07BC
:1025D0000DD504F0D5FC02000B1E33DB30003900B2
:1025E000801A99410029E8DC01D10028E5D1002CAE
:1025F0002ED1039B002B2BD1AB6A022B32D00123AF
:10260000AB62264802F052FB27E0254802F04EFB61
:10261000244C22E00423AB62234C1EE08023DB0524
:102620009846BDE7214B224A3F21224812F080F80C
:1026300001267642204FBEE71C4B1D4A3F211D4814
:1026400012F076F8194B1A4A3F211A4812F070F826
:102650000423AB62194802F029FB200004B080BCBF
:10266000B846F0BD03AB0093002300223A212800B6
:10267000FFF78AFC041EF0D1039B5B0005D5032302
:10268000AB620F4802F012FBE7E70E4802F00EFBC8
:10269000E3E7C04676ECFFFF80841E00848E0110C5
:1026A000CC8D011073ECFFFF71ECFFFF3482011041
:1026B000A08F011088820110FFFFFF7F088E01109C
:1026C000248E01104C8E011070B504000D00110015
:1026D0001E0002F045FA330000222900200002F01B
:1026E00039FA00281CD03100280002F0CBFA05008E
:1026F000010AC9B2200002F033FAE9B2200002F068
:102700002FFAFF21200002F02BFA0500FA21C90060
:102710002000FFF7DDFB002809D01F20284070BDF6
:10272000064B074A0749084802F0E6FADBE7E822C9
:1027300092000549054802F0B9FAEEE7AC8E0110A7
:10274000848F01108E030000E8870110FC880110BF
:10275000F0B587B004000E00029203930C9D2A008E
:1027600000230298039912184B41206A616A8B4238
:1027700032D82FD0E3699B075ED1A36A032B02D026
:10278000029B5B020293012D28D0002700970123B2
:102790002A0017212000FFF7F7FB200002F0C2F902
:1027A00000970023029A19212000FFF7EDFB002873
:1027B00040D180239B00FC2231002000FFF784FFE2
:1027C000052822D180239B009C466644013D002DB4
:1027D000EFD11EE08242CDD918482BE000230093B0
:1027E000029A18212000FFF7CFFB002822D1802376
:1027F0009B00FE2231002000FFF766FF0100052844
:102800000BD00F4802F052FA07E001000D4802F029
:102810004DFAFD21200002F0A3F9002305932000CA
:1028200002F080F905AB0093002300220D21200067
:10283000FFF7AAFB07B0F0BD0048FBE775ECFFFF10
:10284000B08E0110D48E0110F0B583B004000D00DD
:1028500017001E00FFF700FA089B00933A003300B0
:1028600029002000FFF774FF05002000FFF74EFA53
:10287000280003B0F0BD000010B50300007B002865
:102880000ED0D022120651681A69D14001220A40A6
:1028900059698A420AD10222D9699143D96104E077
:1028A0000222D9699143D961013010BD0322D9694F
:1028B0000A43DA6100229A62024813F005FF002001
:1028C000F3E7C046F88E011010B582B00400C36A69
:1028D000002B37D02000FFF7A7F92000FFF7CCFF2F
:1028E000E3699A0732D4DB0735D50023A3622000C1
:1028F00002F020F92000FFF723FE002831D12948FB
:1029000002F0D4F92000FFF7DFFC20626162084387
:1029100032D0802200230093920010212000FFF784
:1029200033FB002830D1200002F0DAF80123E269FD
:102930009A43E261200002F005F92000FFF7CEF98A
:10294000E0690CE02C3003F0EBFCC3E72000FFF75C
:10295000C5F9E06903E02000FFF7C0F9E06902B0C3
:1029600010BD114802F0A2F9200002F0EBF820009F
:10297000FFF7B4F9E069F2E7200002F0E3F8200085
:10298000FFF7ACF9E069EAE780218900074802F027
:102990008DF9200002F0D6F82000FFF79FF9E069DA
:1029A000DDE7C0462C8F0110108F0110448F0110FD
:1029B000F8B52D4815F0A0FB2C4B1B78002B4CD103
:1029C000002620E0206903F063F90022012120693C
:1029D00003F0A2F8012322699340D02212069362E9
:1029E0001EE001252B00A2689340D0273F067B61A3
:1029F000A06803F04DF92B00A26893407B62A368A6
:102A00009D407D61013602F08DF9B04210D9300051
:102A100002F08AF90400FFF7F3F8237B002BD1D1F1
:102A2000237E002BDDD0617EA06803F0A7F8D8E7F5
:102A3000002502F08BF9A8420CD9280002F088F991
:102A400001F0EEFE041E01D00135F2E7064815F054
:102A500023FB06E0054B01221A70034815F01CFB0E
:102A600001242000F8BDC0469813002098C800201B
:102A700043781B020078184370470300C0780002B7
:102A80009A78104300025A78104300021B781843CA
:102A90007047C179090283791943090243791943BF
:102AA000090203790B43090E1B02C2781A431B0E5D
:102AB00009021943120283781343120E09021143CB
:102AC0001B0242781A431B0E0902194312020078B6
:102AD0001043704770B5050003685C1C1B78180034
:102AE0005AB2002A01DB2C6070BD1F2219009143ED
:102AF0000A00C0290FD00F22190091430A00E029D3
:102B000035D00722190091430A00F02933D107205C
:102B10001840ED3A02E01F201840BF3A23780134F4
:102B20003F211E008E43802E28D181013F20184076
:102B30000843013A002AF1D17F2822D980221201CC
:102B4000144BC31893421FD388235B0398421ED2B1
:102B500080235B029842C6D30F4BC3189B010F4AD8
:102B600013408005800D03430D481843BBE70F2039
:102B70001840DE3AD2E701204042B5E7012040424A
:102B8000B2E701204042AFE701204042ACE701201C
:102B90004042A9E70028FFFF0000FFFF0000FF03FD
:102BA00000DC00D870B50300881E5A6A023A8242DF
:102BB00009D99C6CDD6C5A890023002113F002FBBB
:102BC0000019694170BD00200021FBE770B5056860
:102BD000046D0434D905500A0843590A6A89002350
:102BE00012F098FF030001E01B1A08342068002847
:102BF00003D08342F8D26068C01870BD70B506007B
:102C00000C0008001A30FFF733FF05003378032B60
:102C100000D070BD20001430FFF72AFF00042843C5
:102C2000F7E70000F0B5C64600B580460E00080084
:102C30001A30FFF71DFF00282CD1357840239D4323
:102C40006B1E5D00ED18AD00ED180127002403E0B8
:102C5000174A904224D101340C2C0ED8154B185D24
:102C60003018FFF705FF002FF2D0FF2D16D86B00AC
:102C70004246D05207000135EDE733785B0611D5A7
:102C8000002F11D0FF2D11D86D00454400232B805B
:102C9000012000E0002080BCB846F0BD0020FAE72B
:102CA0000020F8E70120F6E70120F4E70020F2E732
:102CB000FFFF00009C90011010B501000B240020C4
:102CC0004308C0010343DBB2087801311818C0B2D1
:102CD000013C002CF4D110BD10B504004278013243
:102CE00052010020002301E001330133934209D255
:102CF000022BF9D0C1034008401880B2E15C4018B3
:102D000080B2F2E710BD70B505000C0000693430E8
:102D1000FFF7B3FEA06028693830FFF7BAFE2061E4
:102D200061612A692123D25C1F3B1340E3710023B8
:102D3000E36170BD10B501000068002823D00200D7
:102D4000137801321F2B01D93A2BF9D13A2B02D03B
:102D50000E4B187810BD03781C00303CE4B2092CEF
:102D60000ED80230904202D001204042F2E7303BC0
:102D70001800012B02DD01204042EBE70A60E9E781
:102D800001204042E6E701204042E3E78CC80020F2
:102D9000012304E0002207E040085B00DBB2002BC7
:102DA00009D01942F6D001225040C207F4D542089A
:102DB00001485040F1E770472083B8ED70B504003A
:102DC0000D00002818D00368002B17D01A78002AAD
:102DD00017D08188DA88914203D0092000242C6022
:102DE00070BD587801F0F2FF030001221000184076
:102DF0001A4209D12468F2E70920F0E71C000920F3
:102E0000EDE709200024EAE709200024E7E70000B5
:102E1000F8B505000C221C4914F0B0FE061E2FD197
:102E200028000C30FFF729FE070002005C3AD2238D
:102E30005B009A4225D801204042002403E0002193
:102E4000FFF7A6FF0134BC4205D22300103B032B41
:102E5000F5D9295DF4E7C44328001030FFF70DFED3
:102E600084420ED128005430FFF707FE802808D195
:102E700028005030FFF701FE802802D8012600E02C
:102E800000263000F8BDC0460090011070B582B039
:102E9000040015001E00C36D826DAA4204D1B34226
:102EA00002D1002002B070BD2100603160780123A2
:102EB00000932A00330001F0A9FF002803D001206D
:102EC00001256D422E00A565E665EBE770B50400AF
:102ED0000021017101204042C117A065E165200079
:102EE000FFF7D4FF002867D1344BE018FFF7C0FD8F
:102EF0000500334B98420CD06023E35CEB2B12D0DF
:102F0000E92B10D0E82B0ED02D4B9D4252D0032040
:102F100070BD200060300B222A4914F02FFE0028DB
:102F2000EAD10120F4E7264B9D4239D020006B30D6
:102F3000FFF79EFD6D23E15C431E0342E4D1802335
:102F40009B009842E0D3DFD80029DDD04B1E0B4216
:102F5000DAD120006E30FFF78BFD0028D4D070232B
:102F6000E35C013B012BCFD820007130FFF780FDDF
:102F70000028C9D020007330FFF77AFD7F2807D8DA
:102F800020008030FFF779FD80235B029842BBD39D
:102F900020007630FFF76CFD0028B5D00020B7E7A1
:102FA000082209492000B23014F0E8FD0028BDD104
:102FB0000020ADE70220ABE70420A9E75E02000095
:102FC00055AA0000D48F0110E08F0110F0B5DE4645
:102FD00057464E464546E0B589B005000C00002234
:102FE0000023FFF773FF022804D000D984E0002CEF
:102FF00000D181E0464BEB5CEE2B0FD00026032E78
:1030000061D82B0060333001C730FF301818FFF74C
:1030100034FDB30004AAD0500136F0E701220023AA
:103020002800FFF733FF002865D160239A46AA44A1
:103030005046FFF7EDFE002865D02800B030FFF7BE
:103040001CFD83462800A830FFF723FD0090019166
:1030500000230393A8461D00A14600E001355D450D
:103060002FD2EC01660A0027009A019B92197B413E
:103070004046FFF70BFF002847D18130FF30044066
:10308000534618191022234914F078FD0028E5D181
:10309000039B01330393200020305044FFF7F9FCD9
:1030A00002000B004046FFF711FF4B46002B01D1F9
:1030B000012821D94B46002BD0D0039B9945CDD177
:1030C0001AE0032018E0002C01D0661E0CE0260058
:1030D0000AE000232800FFF7F9FE002C0CD101289C
:1030E0000AD90136032E07D8B30004AA9A58002A39
:1030F000EFD10320F1E7042009B0F0BCBB46B24693
:10310000A946A046F0BD0320F6E70420F4E7C04638
:10311000220200008C900110F0B5DE4657464E4664
:103120004546E0B589B00D0000230B60FFF702FEB5
:10313000002800DAE9E18000BE4BC458002C00D121
:10314000E5E12C602378002B08D0607801F03EFE8A
:1031500001231D000540034200D1DBE10023237061
:10316000607801F03EFE01231D000540034200D0BF
:10317000CFE100212000FFF729FF042800D1D1E191
:10318000012800D9D0E1A26DE36D009201930128DE
:1031900000D1EEE020006B30FFF76AFC80239B003B
:1031A000984200D0D8E120007630FFF761FC061E7F
:1031B00004D120008430FFF760FC0600A662702373
:1031C000E75CE7707B1EDBB2012B00D9C6E17743D9
:1031D00002976D23E75C6781002F00D1C0E17B1E61
:1031E0003B4200D0BEE120007130FFF741FC804639
:1031F0000300049020811B0700D0B5E1200073304C
:10320000FFF736FC8146002804D120008030FFF70C
:1032100034FC814620006E30FFF72AFC83460028EC
:1032200000D1A3E1029A5A4443461B099BB290463F
:103230009844C14500D29BE14B4642469B1A9946B1
:103240003900180012F028FCB94500D292E17A4BFF
:10325000984200D8EAE000239A46784B984201D879
:1032600002239A46764B984200D8EDE05346002B55
:1032700000D0EBE00D254DE101333F2B04D8E218DF
:1032800060321278002AF7D03F2B00D84EE12000A0
:10329000C830FFF7EDFB80235B00984200D047E188
:1032A000343BE35C092B00D044E12000A830FFF759
:1032B000F0FB009E019F36184F412000B430FFF70D
:1032C000DCFBA062CE23E35C9946E370012B00D0C7
:1032D00032E1CC33E25CCC3B93409BB298466381B5
:1032E000002B00D12AE12000BC30FFF7C6FB82464C
:1032F000544B984200D923E1030002336362009AE1
:10330000019B226363632000B830FFF7B6FB020025
:10331000002300980199801859410A000100029188
:103320000392A164E2642300B0331800FFF7A5FB09
:10333000020000230098019912184B41A263E36335
:103340004046514648430200002302980399121850
:103350004B41BB4211D80ED02000C030FFF78DFB8F
:1033600020640023636400270026B0462600AA4696
:103370000DE00B2381E7B242EED90D25CAE0F31927
:1033800060331B78812B1CD02037FF05FF0D002FE9
:10339000F5D17389434500D8D4E0316C3000FFF794
:1033A00001FC4446002502000B0012196B4130005D
:1033B000FFF76CFD002800D0C6E001239C46E044E6
:1033C000DDE734006036380014303018FFF755FB65
:1033D0000700012800D8B9E0636A834200D8B7E04B
:1033E0006089B91E41430A000023A06CE16C1218E9
:1033F0004B4122656365B0462600FC090025B26B8F
:10340000F36B12196B413000FFF740FD002800D02C
:10341000A0E07F30384080004044FFF72EFB431C83
:103420006ED00137B842E8D00D2573E003239A46E9
:1034300013E7C0463C150020F5FFFF0FF5FF000025
:10344000F50F0000FDFFFF7F01239A46831C99467C
:103450006362009A019B22636363584600218018CF
:10346000594102000B0006920793A263E3634246B0
:1034700000230098019912184B41A264E36453465B
:10348000032B27D0049B002B00D179E0029A002364
:103490000698079912184B41226463645346022B25
:1034A0002BD04B465B004B445B08012249460A4047
:1034B0009B18354A944663445B0AB34262D853462C
:1034C0002370324A138801339BB21380E3800023B8
:1034D00063611FE020008A30FFF7CAFA00284BD151
:1034E000049B002B4AD120008C30FFF7C6FA2064E1
:1034F000002363644B469B00DBE74B465B00D8E749
:103500003400554604239A46D9E70B2502E00C25E2
:1035100000E00325280009B0F0BCBB46B246A9462E
:10352000A046F0BD0125F5E70D25F3E70D25F1E7F0
:103530000D25EFE70D25EDE70D25EBE70D25E9E777
:103540000D25E7E70D25E5E74D46E3E70D25E1E726
:103550000D25DFE74D46DDE70D25DBE70D25D9E736
:103560000D25D7E70D25D5E70D25D3E70D25D1E7A7
:103570000D25CFE70D25CDE70D25CBE70D25C9E7B7
:103580000D25C7E70D25C5E7FF01000078C800201D
:10359000F8B506000C000568012900D8B5E06B6A93
:1035A0008B4200D8B3E02B78032B77D01BD8012BAC
:1035B00045D0022B15D10A0A0023A86BE96B12181B
:1035C0004B412800FFF762FC002800D0A4E028004F
:1035D00060306400FF256D002C400019FFF748FAA9
:1035E00094E0012092E0042B27D141690069030097
:1035F0000B4302D0B368002B03D1F379002B00D02A
:1036000090E0B368E71A01225242D31712184B41D7
:10361000D905500A0843590A6A89002312F07AFA38
:10362000F379022B51D0032B54D0022B00D17DE033
:10363000F369002B53D0404868E0012066E04E0853
:103640007618720A0023A86BE96B12184B41280008
:10365000FFF71CFC002802D00120404256E0771CF6
:10366000F305DB0DEB1860331E787A0A0023A86B94
:10367000E96B12184B412800FFF708FC002848D1DD
:10368000FF05FF0DED196035287800023043E30790
:1036900001D500093AE00005000D37E0CA09002312
:1036A000A86BE96B12184B412800FFF7EFFB0028CD
:1036B00035D128006030A400FE256D002C40001993
:1036C000FFF7DBF90001000920E08742ABD82BD0DF
:1036D000601C1BE0B269BA42A7D9601C16E0E2097F
:1036E0000023A86BE96B12184B412800FFF7CEFBB3
:1036F00000281DD16035A000FE2464002040281859
:10370000FFF7BBF94000400800E00120F8BD0120B0
:10371000FCE701204042F9E701204042F6E70120A2
:103720004042F3E70120F1E70348EFE70120EDE72E
:1037300001204042EAE7C046FFFFFF7FF0B583B0BB
:10374000040001910568066B20362B78042B24D0E9
:1037500080239B03B34203D800220023A263E363C8
:10376000A26BE36B1100194344D0F105CF0D002982
:103770000CD10120002112184B41A263E363616B5D
:10378000002913D173092A89934209D2266360352F
:10379000EF192764002003B0F0BD80235B05D9E753
:1037A00000220023A263E3630330F4E7730A6A890B
:1037B000013A1A42EAD12000FFF7EAFE010001288F
:1037C0001AD9431C1AD06B6A834206D96063280059
:1037D000FFF7E8F9A063E163D8E7019B002B03D171
:1037E00000220023A263E36300220023A263E363B9
:1037F0000420D0E70420CEE70220CCE70120CAE76E
:10380000F0B5CE4600B507000D00036899461B7859
:10381000042B33D080239B03AB424DD9EB064DD113
:103820003D63BC68002C07D14B461B78022B03D9A3
:103830004B461C6C0023FB71002C22D16B094A46BD
:10384000128993423CD24B461A6C5B6CBA63FB63A1
:103850007C63BA6BFB6B1100194339D0680A0021F5
:1038600012184B41BA63FB634B466033ED05ED0D17
:103870005D193D64002080BCB946F0BD80235B0526
:10388000CAE74B465E897602B5420ED32100380066
:10389000FFF77EFE0400431C14D0012814D94B46C8
:1038A0005B6A834212D9AD1BEEE721004846FFF761
:1038B00079F9B863F963CBE70220DCE70220DAE7A5
:1038C0000220D8E70120D6E70220D4E70220D2E781
:1038D0000220D0E7F0B5C64600B5050000680669CD
:1038E000AA6BEB6BFFF7D2FA041E04D1296C0B789C
:1038F000852B04D00224200080BCB846F0BD2022D5
:10390000300012F04BFD737801335F013A00603AEA
:1039100080239B009A425DD800212800FFF70EFF0C
:10392000040004280ED00028E5D1AA6BEB6B2868B0
:10393000FFF7ACFA041EDED1296C0B78C02B03D044
:103940000224D8E70224D6E730002030202212F0EB
:1039500025FD2323F05C2C300F2112F09DF840014F
:10396000B84239D84023984606E00224C3E7202312
:103970009C46E04447451DD900212800FFF7DEFEA4
:1039800004000428F1D00028B5D1AA6BEB6B28689D
:10399000FFF77CFA041EAED1296C0B78C12B1DD128
:1039A000A033FF339845E2D24346F018202212F0AC
:1039B000F5FCDCE798239B0098459CD83000FFF786
:1039C0008BF90500B01CFFF753F8854200D192E750
:1039D000022490E702248EE702248CE702248AE77F
:1039E00010B504000B6803600B6A83604B6AC371F7
:1039F000FF234A6A9A431300002203614261C261B5
:103A0000896A0165FFF7FCFE002800D010BD200088
:103A1000FFF760FFFAE7F0B5D6464F464646C0B519
:103A2000050088460668FF2399469A46042407E065
:103A3000852B2BD000212800FFF780FE041E68D1C3
:103A4000AA6BEB6B1100194363D03000FFF71EFA2D
:103A5000041E5ED1296C0B78002B59D03278042AD1
:103A6000E6D0CA7A3F200240AA71E52B47D02E2B20
:103A700048D01F38170087433800083807007842BD
:103A8000784140450FD0FF239A46D3E72B6B2B6537
:103A90002800FFF71FFF041E3BD133691A793F232B
:103AA0001340AB7135E00F2A1DD15A0606D54A7B6B
:103AB0009146402293432A6B2A659A46534502D089
:103AC000FF239A46B6E74B7B4B4502D0FF239A462D
:103AD000B0E7F068FFF7A6F8002816D05746013F78
:103AE000FBB29A46A6E75346002B04D10800FFF725
:103AF000E3F848450DD001235B422B6509E0FF2325
:103B00009A4697E7FF239A4694E7FF239A4691E760
:103B10000424002C03D000220023AA63EB632000BE
:103B2000E0BCBA46B146A846F0BD0000F0B5DE469E
:103B300057464E464546E0B585B0070089460B68B6
:103B400003930368DD68002405E0FE2C00D971E1D1
:103B50006300EE52013403A8FEF7BCFF431C00D102
:103B600066E180235B02984203D36300020CEA52B1
:103B7000013486B21F2E0ED92F2E0CD05C2E0AD007
:103B80007F2EE2D80004010CAC4814F0E3F80028C2
:103B9000DBD00620E0E01F2E17D8042398464B46C2
:103BA000039A1A60012C1ED0022C3BD1A44BE318BF
:103BB0005B005B5B2E2B35D1A24BE3185B005B5B9C
:103BC0002E2B2FD115E001330393039B1A782F2A54
:103BD000F9D05C2AF7D01F2A02D900239846DEE7E5
:103BE00004239846DBE7964BE3185B005B5B2E2BC8
:103BF000DAD16300ED1800232B8004E02021FA18AD
:103C00004432117001330A2B03D8A342F6D22E217D
:103C1000F5E7FB1844332022414611431970002078
:103C20009AE0013C002C07D0854BE3185B00EB5A6F
:103C3000202BF6D02E2BF4D06300EB1800221A8034
:103C4000002C00D1F8E0002600E0013673005B5B39
:103C5000202BFAD0002E01D12E2B06D10323424671
:103C60001A43D3B2984600E0013C002C05D0744BB7
:103C7000E3185B005B5B2E2BF6D1380044300B223F
:103C8000202112F085FB08239B46002301939A46CE
:103C9000731C99467600AE5B002E2FD0202E1AD0D2
:103CA0002E2E16D0019B5B451CD24C451AD07F2E80
:103CB00069D8FF2E00D882E05B46013B019A93420F
:103CC00000D873E0019A531C310ABA1844321170BB
:103CD00084E09C42E6D0032342461A43D3B298467E
:103CE0004E46D5E75B460B2B3DD04C4504D0032315
:103CF00042461A43D3B298464C453AD24423FB5C21
:103D0000E52B00D18BE05B46082B00D18BE00C2328
:103D1000524613400C2B03D003231340032B04D132
:103D2000022342461A43D3B2984643469B070FD418
:103D30005346DB0704D5102342461A43D3B29846B4
:103D400053465B0704D5082342461A43D3B298462C
:103D50004F234246FA54002005B0F0BCBB46B246A1
:103D6000A946A046F0BD032342461A43D3B2984663
:103D7000C4E753469B00DBB29A4626000B239B46C2
:103D8000033B019384E7022342461A43D3B2984689
:103D9000B621FF31300000F087FC0600030600D496
:103DA00087E77F231840284B1E5C82E703234246A7
:103DB0001A43D3B298464E465B46019368E7002EFD
:103DC00005D03100214813F0C5FF00280DD0032392
:103DD00042461A43D3B29846019B5F265A1C019271
:103DE000FB1844331E704E4652E73300413B9BB2F2
:103DF000192B04D8022352461A43D3B29A463300F1
:103E0000613B9BB2192B08D8012352461A43D3B207
:103E10009A46203EB6B2019BE0E7019BDEE7A13B5C
:103E20000522FA546FE753469B00DBB29A466EE7D1
:103E3000062091E706208FE706208DE7EC8F011022
:103E4000FFFFFF7FFEFFFF7F0C900110F88F011036
:103E500070B5002412E000F049FC83B2E20364086C
:103E6000A418A4B2FF2210402418A4B2E2036408EC
:103E7000A418A4B21B0AE418A4B22800851C008868
:103E80000028E8D1200070BDF0B5D646474680B581
:103E900083B080460F0008001A30FEF7E9FD0028C5
:103EA00037D13B783F263340013B5E00F618B60021
:103EB000F6180124002505E000202BE01C4A904262
:103EC0002DD101350C2D18D81A4B585D3818FEF736
:103ED000CFFD0190002CF1D0FF2EEDD800F006FCB4
:103EE0000400731C9A4676004346F05A00F0FEFB2D
:103EF0008442E1D1019C5646E3E73B785B0610D54E
:103F0000002C10D076004346F35A002B0DD101202F
:103F100000E0002003B0C0BCBA46B046F0BD0020AF
:103F2000F8E70120F6E70120F4E70020F2E7C046B9
:103F3000FFFF00009C900110F8B5DE4657464E4644
:103F40004546E0B5050007680021FFF759FC041E4F
:103F500000D0B0E03B78042B07D001235B422B65F7
:103F60000133FF33994698464CE0F868FFF770FF3D
:103F7000834627E038694044FEF77AFD00F0B6FB3F
:103F8000814653465B00FA68985A00F0AFFB8145C2
:103F900010D1013EF6B202239C46E044013B9C4610
:103FA000E244002E06D04346DB06E3D102239C46C2
:103FB000E044DFE7002E05D153465B00FA689B5AC8
:103FC000002B78D000212800FFF725FD041E72D1B8
:103FD0003E6930002430FEF74BFD5845F2D12323D3
:103FE000F65C00239A4640339846DAE701235B42A9
:103FF0002B650133FF33984600212800FFF79EFB15
:10400000041E58D1AA6BEB6B3800FEF73FFF041E6D
:1040100051D12E6C3278002A4CD0F17A3F230B40DC
:10402000AB71E52AE2D0090701D50F2BDED10F2BAA
:104030001AD04346002B04D13000FEF73DFE484520
:1040400039D04F23EB5CDB0707D4290044310B2226
:10405000300013F093FD00282DD001235B422B6527
:104060000133FF339846C7E74033EB5C5B06C3D4AC
:10407000530606D5737B994640239A432B6B2B65D9
:104080009046424502D0FF239846B5E7737B4B45E7
:1040900002D0FF239846AFE73100F868FFF7F4FE3F
:1040A000002804D04346013BDBB29846A4E7FF2337
:1040B0009846A1E704242000F0BCBB46B246A946BE
:1040C000A046F8BD70B598B00400019106680B7861
:1040D0002F2B06D05C2B04D07369836009E0013379
:1040E0000193019B1A782F2AF9D05C2AF7D000237C
:1040F000A3600023E3613378042B0CD0019B1B7871
:104100001F2B3BD84F238022E25400212000FFF7D1
:1041100077FB050048E0A368002BEFD0B36923626A
:10412000F3696362336AA362210002A8FFF758FCB7
:10413000051E39D130693830FEF79FFC206100231D
:10414000636121333269D25C1F3B1340E371D5E7D1
:1041500053073ED5050027E053073CD4A379DB067F
:104160003BD53378042B22D033006033226BD1054A
:10417000C90D59183000FEF741FDA06001A92000CB
:10418000FFF7D4FC051E0FD12000FFF7D5FE4F220C
:10419000A25C0028E0D0042819D19306D8D5530793
:1041A000ECD54F238022E254280018B070BDA368DC
:1041B0002362FF2322699A431300E2791343636267
:1041C000236DA36221003000FEF79DFDD6E70500B8
:1041D000EAE70525E8E70500E6E70525E4E700004E
:1041E00030B585B0019000911400039103A8FEF74B
:1041F000A1FD00281EDB83000F4A9A58002A03D035
:1042000000210D4D59511170019B002B07D05870A2
:104210000023019A13708000074A019B8350002CF1
:1042200002D1200005B030BD002201A96846FEF78A
:1042300073FFF7E70B20F5E73C150020F0B5C64605
:1042400000B59AB0051E019100D168E00126164024
:10425000320003A901A8FEF75FFF041E08D0002C5E
:1042600001D000232B6020001AB080BCB846F0BDFE
:10427000039B04938C20C00000F00EFA071E50D060
:10428000039BD8608022920082181A61019904A8C9
:10429000FFF718FF041E07D104AA4F23D356002BA3
:1042A00039DB9379DB0638D4002C20D103980378CE
:1042B000042B20D0149B98461900FEF79FFCA860A1
:1042C00040461C30FEF7D9FB286100236B610023B8
:1042D0002B65039A2A60D288AA803022AE5401321C
:1042E000AB5400220023AA64EB64AA63EB6338009A
:1042F00000F0D6F9B3E704AA069B2B62FF230899C6
:1043000099430B00D1790B436B62189BAB62290078
:10431000FEF7F9FCDBE70624E9E70424E7E70924D4
:10432000A1E711249FE7F0B5DE4657464E464546C5
:10433000E0B58DB004008B469046994600234A466E
:1043400013600BA9FEF73AFD031E059000D0C1E0F3
:104350003133E35C0593002B00D0BBE03033E35CEA
:10436000DB0700D4CAE022696369A06BE16B121A13
:104370008B414146002B00D0BAE0914200D8BAE010
:104380005F4616005AE0216D002903D02000FEF799
:104390001DFC68E0216C2000FFF7FAF863E0312390
:1043A0000222E2542F3B059394E031230122E25490
:1043B000303B05938EE031230222E2542F3B0593DC
:1043C00088E06D0228E0E36CA06C0899099A8842A5
:1043D00001D193420CD02100543143465878012337
:1043E0000093089A099B00F011FD002800D079E0A5
:1043F000089A099BA264E364A36BD905C90D8025C3
:10440000AD006D1AAE4200D2350023005433591866
:104410002A00380011F0C2FF761B4B461B685B195F
:104420004A4613607F19029500230393A26BE36B46
:104430000298039912184B41A263E363002E49D0FE
:10444000A26BE36BD105D7D1D805510A01430B9874
:104450004089013805000D40AA46084208D11100E4
:10446000194390D1A068012899D9431C9DD020649C
:104470000B9B9846216C1800FEF794FB02000B0082
:104480000100194397D051460691002107910698E3
:1044900007998018594108900991750A80239B005B
:1044A0009E4290D353465B1942465289934201D9AA
:1044B0005346D51A434658780095089A099B390007
:1044C00000F0A4FC002800D17BE731230122E25454
:1044D000303B059305980DB0F0BCBB46B246A946EB
:1044E000A046F0BD31230122E254303B0593F1E7B1
:1044F0005F464646A2E75F4646469FE70723059389
:10450000E8E710B582B0040001A9FEF757FC0028C7
:1045100001D10023236002B010BD0000F0B5D646E3
:104520004F4680B585B0019091460B1F9A46060014
:10453000002713E01F241C4028E0D13B1C4002252B
:1045400028E0E93B1C4003252AE07F2C54D8731C4B
:10455000347001370A2C00D18FE01E00574500DB74
:104560008CE002AB012203A94846FFF7DCFE029D66
:10457000012D00D082E003AB1B781C007F2BE4D917
:104580001F2219009143C029D4D00025F0232340D5
:10459000E02BD2D0F8232340F02BD2D0002DDDD059
:1045A00002AB2A0003A94846FFF7BDFE029BAB42BF
:1045B00064D100230293029B03AAD15C3F2208002E
:1045C00090430200802807D1A401413A0A401443D5
:1045D00001330293AB42EED3029BAB42BED17F2CA0
:1045E000BCD9802212012B4BE3189342B6D3882307
:1045F0005B039C42A9D3B1E780231B019C420ED2EE
:10460000A2091F231A405F3B134333703F2323400B
:10461000802464421C437470023702369EE7802374
:104620005B029C4212D2220B0F231A402F3B1343F2
:104630003370A3093F210B40802252421343737011
:104640000C402243B2700337033687E7A20C0723DE
:104650001A40173B13433370210B3F221140802334
:104660005B4219437170A10911401943B1701440A4
:104670002343F3700437043670E71E0000233370C1
:10468000002F05D0019805B0C0BCBA46B146F0BDB8
:104690000020F8E70028FFFF10B511F049FE10BD1B
:1046A00010B511F069FE10BD7F2801D880B27047A7
:1046B00080235B02984215D2B623FF3399420FD074
:1046C0000020F4E701339BB27F2B04D85A0006493F
:1046D0008A5A8242F6D180331800FF231840E6E759
:1046E0000023F1E70020E2E780930110F0B580237A
:1046F0005B02984227D286B280235B019E4201D2A0
:10470000204B02E0204B00E02B001A88002A19D031
:10471000964217D31D1D59880C0AFF230B40010434
:10472000090C9F18B94204DB002CEDD15B00EB189B
:10473000EBE7082C06D8A400144B1B599F468A1A95
:104740005200AE5A3000F0BDB21A01231A40B61A18
:10475000B6B2F7E7103EB6B2F4E7203EB6B2F1E7E4
:10476000303EB6B2EEE71A3EB6B2EBE70836B6B266
:10477000E8E7503EB6B2E5E7054B9C466644B6B264
:10478000E0E7C046D0900110C4920110AC90011037
:10479000A0E3FFFF70B50500002400E0013400F045
:1047A000D5FAA04209D9200000F0D2FAC369AB4281
:1047B000F4D1200000F0CCFA00E0002070BD000031
:1047C00010B50400836B002B04D02000383013F0A8
:1047D00093FC10BD034B044A7F21044800F08CFA7F
:1047E000F3E7C0466495011074960110A49401107B
:1047F00010B50400836B002B04D02000383013F078
:104800004BFC10BD034B044A8321044800F074FAAA
:10481000F3E7C0466495011068960110A494011056
:1048200070B504007F4813F067FC2C23E35C002B79
:1048300000D0BBE0A36B002B00D1BCE02000FFF751
:10484000BFFF200030300122002101F051FD7649E8
:10485000206812F01FFA2068026807215140CF2219
:104860000A4080235B0103431A600121606801F064
:104870003BF90121A06801F037F90121E06801F05E
:1048800033F9237D002B00D09AE0002201216068DB
:1048900001F042F901200FF0D3FBA06101200FF0DD
:1048A000CFFBE061A269614B0C2A00D991E060491D
:1048B0000B40D20213430C229343043A13435D4A44
:1048C00013405D4A13405D4A1340012213435C4A82
:1048D0001340022293432362E269544B0C2A00D90D
:1048E0007DE053490B40D20213430C22934308212D
:1048F0000B4350490B4050490B4050490B4001219C
:104900000B434F490B4002218B436362216A914361
:104910002162934363624B4B22689A4265D0102216
:104920003F2A64D8484B216A0B40D20313432362C9
:104930002023226A9A432262424B22689A425CD028
:1049400011223F2A5BD8404B616A0B40D2031343CC
:1049500063621023626A9A4362623C4B1B78002BAD
:1049600053D00C253A4B1B78002B50D0802239496C
:10497000280001F047FA354B1B78002B4CD001235F
:10498000E2699340344A13600121280001F000FAE3
:10499000192001F07DF9D0231B06802292045A626F
:1049A0002C230122E2542000FFF722FF1D4813F0C0
:1049B00073FB012070BD2000383001F0B1FC3DE7F1
:1049C000617DA06801F0DAF8A17DE06801F0D6F819
:1049D0005BE7224B224AC32122480FF0A9FE1F4B5E
:1049E0001F4AC3211F480FF0A3FE122298E71E4B57
:1049F0001E4AB5211B480FF09BFE1322A1E71A4B5C
:104A00001A4AB52117480FF093FE0B25AAE7114962
:104A1000280001F0CDF9AEE70123E2699340144A82
:104A20001360B1E7A0130020A086010010801F00D2
:104A3000FF87FFFF3FF8FFFFFFFFBFFFFFFFDFFF25
:104A4000FFFF7FFF00000440FF7FE0FF99C80020C8
:104A500057070020C1000020142400508895011041
:104A60003C960110A8950110F095011014960110C4
:104A70000424005000B583B0012382689340D02203
:104A80001206536180239B0493616B46D91DFF235B
:104A90000B7043681868012213F016FB03B000BDC9
:104AA00010B582B0012382689340D0242406A3610C
:104AB0006B46D91DFF230B7043681868012213F061
:104AC00003FB80239B04636102B010BD10B54068F6
:104AD000FFF776FE10BD10B54068FFF789FE10BDE8
:104AE00010B543681969186812F08AF80200024983
:104AF000024811F019FE10BD0897011080960110B0
:104B000010B543681868044912F07AF802000349A6
:104B1000034811F009FE10BD801A0600F09601103E
:104B20008096011010B50400FFF7A4FF2000FFF7E6
:104B3000B7FF10BD10B50400FFF7C8FF2000FFF756
:104B4000AFFF10BD10B50400FFF794FF2000FFF782
:104B5000C2FF10BD10B5406813F0C6FA10BD0000CA
:104B600000B585B00B006A46D11D0B700F226A4458
:104B7000FF2313704068FE3B13F0B6FA002804D000
:104B80000F236B44187805B000BD034B034A612125
:104B9000034800F0B1F8F3E79C9601103C97011030
:104BA000A4960110F0B585B006008168D0221206E7
:104BB0005768CF4001231F408B4053610A22FF21D9
:104BC00001A811F0E5FB02F0DBF904000D1E26DB65
:104BD000FA2292000023A4185D41002D25DB002D50
:104BE00027DB0A23002201A93000FFF7B3FF02F000
:104BF000C7F902000B1E22DB20002900801A994110
:104C00000029EEDC01D10028EBD1B26801239340EA
:104C1000002F1AD0D0221206536105B0F0BD0D4B03
:104C20000D4A3F210D480FF083FD012464420C4DD5
:104C3000D5E7084B084A3F2108480FF079FD054B9E
:104C4000054A3F2105480FF073FDD02212069361FB
:104C5000E3E7C046348201102497011088820110D6
:104C6000FFFFFF7F10B504000023002005E0400097
:104C7000E25C5040024A105C01338B42F7DB10BD0E
:104C80004C99011070B506000022002009E00402D2
:104C9000030AB05C43405B00034D585F604080B244
:104CA00001328A42F3DB70BD4C9701100FB430B56E
:104CB000C3B046AC20CC00230293FC22002103A801
:104CC00011F066FB0194802123002A00490002A80C
:104CD00010F08EFE02A9064811F026FD054B1B6858
:104CE000986812F041F943B030BC08BC04B01847D2
:104CF0004C9A0110580B002010B582B00C0019001E
:104D0000009223000200054811F00EFD044B1B68C1
:104D1000986812F029F972B600BEFDE7509A0110AA
:104D2000580B00200120704710B50400FFF7FAFF70
:104D3000A04207D3A00000190301C018C000024B15
:104D4000C01810BD0020FCE7580700200120704764
:104D500010B50400FFF7E6FFA04203D3A001024C08
:104D6000201810BD0020FCE7000A0020124B9842DA
:104D700018DC124B984218DA114B984217D006DD16
:104D8000104B9C46604401280AD803200CE00E4BCF
:104D90009C466044012801D8032005E0012003E07F
:104DA000012001E0002804D170470420FCE7022024
:104DB000FAE70120F8E7C04676ECFFFF75ECFFFF4D
:104DC00072ECFFFF8D1300009013000010B5FFF789
:104DD000ABFF041E03D0FDF74FFD207F10BD042064
:104DE000FCE710B50400FDF7E3FD00280AD0200021
:104DF000FFF79AFF002807D0A7239B00C3589847C6
:104E0000C0B210BD0320FCE70420FAE7F0B583B080
:104E10000E0015001C00FFF787FF00280DD0A92306
:104E20009B00C758089B00932A0023003100B84715
:104E3000FFF79CFFC0B203B0F0BD0420FBE7000009
:104E400010B5064B8B4202D107F084FF10BD044B16
:104E5000044A182104480FF06BFCC046500A002099
:104E60008C9A0110309B0110AC9A0110F8B5040027
:104E7000204B994212D101230B7207F095FF0500D8
:104E8000431C11D11C4B186859681C4B9860D960A1
:104E900023685B69194920009847F8BD184B194AE7
:104EA0001D2119480FF044FC02F06AF806000F1E9D
:104EB00010DBFA22920000232800002111F082F971
:104EC00036184F41002F0BDB002F0DDB0B4B9E6084
:104ED000DF60DDE70D4B0E4A3F210E480FF028FC46
:104EE000012676420C4FEFE7084B094A3F2109485B
:104EF0000FF01EFC400A002088A70110500A002075
:104F0000E89A0110489B0110AC9A011034820110FC
:104F1000189B011088820110FFFFFF7F10B504006D
:104F2000094B1B78002B08D0084901230B7223681A
:104F3000DB6920009847012010BD02F013FC024BF2
:104F400001221A70F0E7C04695C80020400A0020F0
:104F500010B5040003689B690349984723681B6ADE
:104F600002492000984710BD500A0020400A002046
:104F7000002070477047000010B502F001F80029CA
:104F800006DB0BD0FA229200002310F0C3FD10BD07
:104F9000054B064A3F2106480FF0CAFBFA2189005B
:104FA00010F07AFDF3E7C04634820110189B01101F
:104FB00088820110083000E018000368002B03D03D
:104FC0008B42F9D1002002E001600B6001207047A4
:104FD000083000E018000368002B05D08B42F9D19F
:104FE0000B680360012000E000207047043000E0FF
:104FF00018000368002B03D08B42F9D1002002E097
:1050000001600B6001207047043000E01800036865
:10501000002B05D08B42F9D10B680360012000E022
:1050200000207047F8B506008068002833D001F0F2
:10503000A7FF002906DB04000D0008239C46B444AA
:1050400000220CE0154B164A3F2116480FF070FB6A
:10505000154B164A422116480FF06AFB9C466346E0
:105060001B68002B12D0200029009E68DF68801B7F
:10507000B9410029F2DB34003D000E490A68496855
:10508000724079400A43E3D06246E7E7002A03D042
:10509000106803681360F8BD1000FCE7348201104B
:1050A000CC9B0110888201105C9B0110E49B0110D5
:1050B000809B011088A70110F0B583B0104B5C688D
:1050C0001B6800930194836804E0DC689B6800938C
:1050D00001940B00002B0CD01968009C019D9E6868
:1050E000DF68A41BBD41002DEFDCF2D1002CECD118
:1050F000EFE7009B019C0361446103B0F0BDC04633
:1051000088A7011070B506000D0002E04B6828006A
:1051100098472800FFF786FF011EF7D16C6800E072
:105120002468002C09D0237A002BF9D000232372A5
:105130002100280063689847F2E72800FFF7BCFFCA
:105140002B696C6933607460300070BD034B1B6861
:1051500002201840431E9841C0B2704700C006406C
:1051600010B5104A104B12184B419900900F08438C
:10517000990F504059400D4A0D4B11F023F8030090
:105180004A01C00E1043CA0E58405140094A0A4B0A
:1051900011F018F803004A00C00F1043CA0F58401E
:1051A000514010BD157C4A7FB979379EB9E5E41CA2
:1051B0006D4758BFEB113113BB49D094F0B5C646CB
:1051C00000B584B002000B0013498C461BE0614619
:1051D00001C900908C4600210191910E9F010F435F
:1051E0009601009801998019794102900391110C60
:1051F0001D040D4314040298039900196941801A93
:10520000994102000B0005498C45E0D910001900B6
:1052100004B080BCB846F0BD001C0420FF1F042071
:10522000F0B5CE46474680B583B0804603684468F3
:105230000093019403008068D96801E001F0A0FEAA
:10524000009C019D23002B4302D103000B43F5D0AA
:10525000009C019DA60FAB003343A2002E00250049
:10526000AD185E416B0E9946F3019C464B46624673
:1052700013431F00730EEA0113431E005B0F9C468D
:10528000FB0064462343F20092197B41009C019D80
:1052900060406940260A2F063E432D0A009C2406E2
:1052A0002C43444035004D40070C0E043E43070498
:1052B0007C4075404646346075604C01C50E2C43F9
:1052C0004001C90E0843B460F0601000190003B03B
:1052D000C0BCB946B046F0BDF0B5DE4657464E46B6
:1052E0004546E0B583B00190574B9B69DB0410D570
:1052F000564BDA6BE0231340402B0AD0EFF30583C3
:105300009846019B002B0AD00023994600240025D3
:105310008AE04F4B4F4A81214F480FF009FA4F4B1B
:105320004C4A86214C480FF003FA4D4B18685968D7
:1053300001F0C8FCEFF3108672B64A4B1B68002BD5
:10534000FBD0BFF35F8F464B19685A688A4516D069
:10535000BFF35F8F434B00221A6086F310885B46D1
:10536000002B5ED13E4B1A6892465F684346002B85
:10537000DBD03B4B1868596801F00EFEDAE7BA4201
:10538000E6D120002900001969412F4BDA69012379
:10539000134003431C000D0001F0F2FD02000B1E40
:1053A00023DB0A20002112184B41002B23DB002BAA
:1053B00025DB2B490A604B6001994B1E4B452DD1D3
:1053C000294A20235B42CB181FD4116899400B0057
:1053D000126801998A4022432B4314001D00224B7E
:1053E0001C605D6001239B46B2E7204B204A3F21B1
:1053F00020480FF09DF9012252421F4BD7E71B4B6B
:105400001B4A3F211B480FF093F9202301981B1AD8
:105410001168D940536883400B43D9E701239B4669
:1054200096E701239C46E144019B994502D2002363
:105430009B4697E72000290003B0F0BCBB46B2466C
:10544000A946A046F0BDC0460000064000800040CE
:10545000149C0110349D0110DC9C011008AE011059
:1054600018150020300100D0E01300203482011014
:105470001C9D011088820110FFFFFF7F10B588B0CE
:105480003B4C20686168FFF799FE20606160FFF780
:1054900067FE049B5840059B019359400490059179
:1054A00002A800F011F902980399FFF759FE069B34
:1054B00001935840079B0193594006900791402063
:1054C000FFF70AFFFFF74CFE049B5840059B019332
:1054D00059400490059101F053FDFFF741FE069BF2
:1054E00001935840079B0193594006900791EFF3B1
:1054F000108472B61F4B1B68002BFBD0BFF35F8F6D
:105500001D4B1B78002B24D1032B09D85A1CD20029
:105510001A498C46624452681F2A03D00133F3E7CC
:1055200001235B425A1C1DD0DBB2154A13700133B4
:10553000DB00124A9446634405225A6004A8FFF730
:105540006FFE102204A90F4810F028FF0A4B012219
:105550001A70BFF35F8F074B00221A6084F3108824
:1055600008B010BD084B094AE92109480FF0E0F8DE
:10557000C8130020300100D09EC800200000034066
:105580008EC80020D0130020109D0110549D0110E2
:10559000DC9C011070B586B03E4B1B78002B00D10F
:1055A0006EE010223C4902A810F0F8FE3B4B1C783C
:1055B000E4B201F0E5FCFFF7D3FD029B5840039BEA
:1055C00001935940029003910120FFF785FEFFF7F8
:1055D000C7FD049B01935840059B019359400490DB
:1055E00005912F4B1A78531CDB002E4958582E4B2F
:1055F000984248D00021FFF7B3FD029B1840039B5F
:105600000193194002900391EFF3108672B6274B75
:105610001B68002BFBD0BFF35F8F204B1B78DBB2E6
:10562000A34213D01C4B02991A685140039A01926D
:1056300058684240029103929A68DB68049901918C
:105640004A40059901914B400492059302A8FFF747
:10565000E7FD05000C00102202A90F4810F09EFE85
:105660000E4A13780133DBB21370BFF35F8F0F4B19
:1056700000221A6086F310882800210006B070BD51
:10568000FFF7FCFE8DE70132D2000B000021D15064
:10569000B0E7C0469EC80020D01300208FC800206D
:1056A0008EC8002000000340FFFFFF00300100D043
:1056B00010B5FFF76FFF10BD10B5024800F00CF8F1
:1056C00010BDC04610C6002010B50822014910F0D8
:1056D00065FE10BD10C6002070B588B0040004AD92
:1056E000002604960922002105A810F051FE00961C
:1056F0000922002101A810F04BFE4B232B700D2234
:105700006946280012F0C0FC002304E05A1D6946D7
:105710008A5CE2540133072BF8DD08B070BD00004D
:10572000EFF3108072B6034B1B68002BFBD0BFF366
:105730005F8F70472C0100D0BFF35F8F024B0022B8
:105740001A6080F3108870472C0100D0CB08C25C2F
:1057500007231940012088401040431E9841C0B2E1
:105760007047F8B506000C001500FFF7D9FFE308F5
:10577000F718F15C07222240012393400B4205D128
:10578000DBB20B433B70FFF7D7FFF8BD21002800C9
:105790000FF068F8F0B583B00600019114001F0007
:1057A000FFF7BEFF00E00134BC420CD8E308F51857
:1057B000F35C0721214001228A401A42F3D1D2B280
:1057C0001A432A7001E001246442FFF7B5FF002C60
:1057D00002DB200003B0F0BD019B002BF9D008983C
:1057E0000FF040F870B505000C00FFF799FFE308D3
:1057F000EE18EA5C07210C400123A340134204D0B9
:105800009A433270FFF798FF70BD034B034A2C3167
:1058100003480EF08DFFC046C89E0110249F011062
:10582000E89E0110002307E0054A9A189200BFF392
:105830005F8F0021116001331F2BF5D97047C046DF
:1058400040000034054A1078431CDBB21370172B5C
:1058500002D9130010221A707047C046680A00204F
:1058600000B583B00100044B00931F2318220348A6
:10587000FFF790FF03B000BD349F0110D01C002043
:1058800010B5010018231B8814221088984710BDFA
:1058900010B5010018231B8816221088984710BDE8
:1058A000F0B5C64600B507000E0000250123984656
:1058B00000E00135B5420AD2AC003C192068FFF780
:1058C000DFFF20600028F4D100239846F1E740462E
:1058D00080BCB846F0BD0000F8B5DE4657464E46DF
:1058E0004546E0B505000F0092460A9A93424ED312
:1058F0001A0E91461E020A9A00233000494610F003
:1059000009F980466C006419A4002F4B9C4664443E
:105910006368834200D260602B1FDBB29B46012B81
:105920003BD9C0239B012343802212011A60AB00A4
:10593000264A9958002905D0506910F0ADF8013079
:105940000138FDD153465A0123685A40E0231A40DA
:1059500080235B0123431A605A46012A28D98023F9
:105960009B012343802212011A6043466360424632
:1059700000233000494610F0CDF8AD00134B5851CC
:105980000120F0BCBB46B246A946A046F8BD104B6C
:10599000104A2D2110480EF0CBFE012FC1D1C0239B
:1059A0009B01234303221A60A368DB07FCD5C9E7E8
:1059B0002168794003220A401A60A2680123BB4093
:1059C0001342FAD0CBE7C04600800040D41C002030
:1059D000509F0110A09F0110649F011030B583B04B
:1059E0000C2001F0A3FEFFF7B1FB00280DD000232F
:1059F00004E099002D4A2E4888500133092BF8D92C
:105A00002A4B2C4A5A6203B030BD2B4B00229A67B6
:105A100001F094FE294B01221A60274B5B6C012B8D
:105A2000FBD1274B03221A60234B9B6B012BFBD12D
:105A3000013300930433234A0121234801F0E0FDA0
:105A400005230093214A0121214801F0D9FD214B72
:105A50000093002202210420FFF73EFF1E4D009517
:105A60002B00002201210520FFF736FF104C009487
:105A70002300002200210720FFF72EFF00942300BF
:105A8000002200210820FFF727FF0A4B0093230084
:105A9000002200210920FFF71FFF00952B000022A4
:105AA00000210620FFF718FFADE7C046D41C0020F8
:105AB000006CDC021BB70000008000403CB00040DE
:105AC00030B00040002F685900800240008C8647AB
:105AD00000C00240001BB700405973078000014B13
