:020000041000EA
:1000000000B5324B212058609868022188439860DF
:10001000D860186158612E4B002199600221596106
:100020000121F02299502B49196001219960352056
:1000300000F044F80222904214D00621196600F024
:1000400034F8196E01211966002018661A6600F04E
:100050002CF8196E196E196E052000F02FF8012189
:100060000842F9D1002199601B49196000215960AB
:100070001A491B48016001219960EB211966A021F2
:10008000196600F012F800219960164914480160C1
:100090000121996001BC002800D000471248134993
:1000A000086003C880F30888084703B5996A0420EC
:1000B0000142FBD001200142F8D103BD02B5186610
:1000C0001866FFF7F2FF186E186E02BD00000240BE
:1000D000000000180000070000035F00212200005C
:1000E000F4000018222000A00001001008ED00E03C
:1000F00000000000000000000000000074B24E7A12
:1001000000200420F7010010C3010010C5010010F9
:10011000C1010010C1010010C1010010C101001097
:10012000C1010010C1010010C1010010C701001081
:10013000C1010010C1010010C9010010CB01001065
:10014000CD010010CD010010CD010010CD01001037
:10015000CD010010CD010010CD010010CD01001027
:10016000CD010010CD010010CD010010CD01001017
:10017000CD010010CD010010CD010010CD01001007
:10018000CD010010CD010010CD010010CD010010F7
:10019000CD010010CD010010CD010010CD010010E7
:1001A000CD010010CD010010CD010010CD010010D7
:1001B000CD010010CD010010CD010010CD010010C7
:1001C00000BE00BE00BE00BE00BE00BEEFF3058054
:1001D000103800BEF2EB88719C8C0510C48C0510A1
:1001E0003402001090A31AE700201F49086006C8D7
:1001F00081F3088810471D48006800282FD10DA4FE
:100200000ECC002902D000F012F8F9E71849194A7B
:10021000002000E001C19142FCD1174988471749ED
:1002200088471749884700BEFDE701C901C29A42C5
:10023000FBD37047C48C0510C0000020601D002057
:1002400084A90510000004200000042084A90510E2
:10025000001004200010042000000000704709482E
:1002600005F058FB0047000008ED00E0000000D05A
:10027000801D0020D8EA00206D5001108D1600105E
:10028000295001105756000006005250ABB360537E
:100290009886051006005250861C0302A886051099
:1002A000060052505422A29DC486051005005250EB
:1002B000DE65F46884A90510F8B5C04610B5064C93
:1002C0002378002B07D1054B002B02D0044800E017
:1002D00000BF0123237010BDE01E002000000000BD
:1002E00008AE0110044B10B5002B03D0034904489D
:1002F00000E000BF10BDC04600000000E41E00206A
:1003000008AE0110030000091B011843C0B28208A7
:100310003323134080003322904340B20343DBB2C7
:100320005A08552002405B0055218B4358B21043B8
:10033000C0B2704710B5002406E0064B185DFFF709
:10034000E1FF054B1855013494235B009C42F4D324
:1003500010BDC0467CB30110041F0020F8B5050095
:100360000F0014001E001A4B1B78002B19D0782F99
:100370002CDC382C2ADCE217072111400C19E41080
:1003800030001AF0C7FBC3B21A00413AD2B2192AA0
:100390000AD9303BDBB2092B0DD8FF260640153EAB
:1003A00005E0FFF7C7FFE2E7FF260640403EE10118
:1003B000C919002308E00026F9E7F200D218044822
:1003C000825C6A5401330131072BF6DDF8BDC0466B
:1003D000041F0020F8B507000C0016001D00782946
:1003E0000DDC382A08DD0AE0013532002100380032
:1003F000FFF7B4FF083424B22B78002BF4D1F8BDFA
:1004000070B5050014F004FBA022920030213620C4
:1004100008F02AFF0400466830220021300016F060
:1004200037FC1B233370A86860332A0021000DF0CD
:10043000DBFA200008F0DAFE14F0F4FA70BD0000D8
:1004400070B52021012016F005FC041E0BD02E20D3
:100450000DF082FB051EA06009D0220008490DF0B6
:100460003FFB200070BD074816F0AEFDF9E70648D7
:1004700016F0AAFD200016F0FFFB2C00F1E7C046A5
:1004800099050010BCAE0110D8AE011030B585B092
:1004900004001000002913D1002A11D019F0B4FD76
:1004A00043691E4A9446634402690132C168056883
:1004B00002954568019580680090194816F0B4FDD2
:1004C000A569002D12DC06F0F7FD02000B1E15DBFE
:1004D0001448002112184B41002B15DB002B17DBB1
:1004E000226163610023237105B030BD06F042FB39
:1004F000290006F009FC0023A361E4E70A4B0B4A3C
:100500003F210B4814F094FD01225242094BE5E7CC
:10051000054B064A3F21064814F08AFD6C0700008F
:10052000F0AE011080C3C90124AF011040AF01102B
:1005300078AF0110FFFFFF7F10B5080014000029FD
:100540000BD00B68136010F0EFFA0100084816F0AA
:100550006BFD2000FFF754FF10BD064816F034FD78
:100560000121002249422000FFF790FFF4E7C04636
:10057000B8AF0110C8AF011010B50C00054816F057
:1005800023FD0121002249422000FFF77FFF0020C8
:10059000002110BDE0AF0110F0B5C64600B582B035
:1005A000050014001E0008AB1F880021100009F090
:1005B00035F90723034098460121200009F02EF960
:1005C00033682A68934201D17B2F0FD01A4816F066
:1005D000FBFC0121002249422800FFF757FF2000C1
:1005E00008F004FE02B080BCB846F0BD2389302B71
:1005F000ECD14346042BE9D10028E7D001AE002717
:100600000197243304223100200009F009F83378DF
:100610001B06727812041343B27812021343F27865
:100620001343064A94466344054A13605760002109
:100630002800FFF72BFFD2E7F4AF01108081557C33
:10064000C81E002043780178591A0131C278837896
:10065000D31A01334B4343607047000000B585B0A7
:1006600003AA00231380802111705070009302337D
:100670004439024819F0D0F805B000BDE814002054
:1006800070B506000D00002403E0305DFFF7E6FFC3
:100690000134AC42F9DB70BDF0B583B006000D004B
:1006A0004F1C380016F0C4FA0400402303700130D8
:1006B0002A00310016F0F2FA002300933B002200DA
:1006C0003C21044819F0A8F8200016F0D5FA03B030
:1006D000F0BDC046E814002030B589B001A8074934
:1006E00003000A0032CA32C332CA32C312881A80E7
:1006F0001A21FFF7C5FF09B030BDC04604B3011091
:1007000030B583B005000C0006220021684616F0C3
:10071000BFFA21236A4613700133D37023785370D4
:1007200063789370A3781371E37853710621684658
:10073000FFF7A6FF61682800FFF7AEFF03B030BDEA
:10074000F0B585B0041E1FD118E0304B304A3F2170
:10075000304814F06DFC2D4B2D4A3F212D4814F0EC
:1007600067FC012252422C4B2AE0284B284A3F21A9
:10077000284814F05DFC2000FFF742FE05B0F0BDF4
:10078000FA20400006F0E4FB06F096FC02000B1E87
:10079000DBDB20696169801A99410029F0DA23794D
:1007A000002BEDD106F0E6F9050006F085FC060009
:1007B0000F1ED0DB194A002392197B41002BD0DB9E
:1007C000002BD2DB012602960194154900912800E6
:1007D00006F0E6F9A06114F01BF92300114A21008C
:1007E000114807F09BFE050014F01CF92671002D3E
:1007F000C1D06B1DC4D00D4816F0E6FB01210022CC
:1008000049422000FFF742FEBAE7C04624AF01107C
:1008100040AF011078AF0110FFFFFF7F8096980076
:1008200079050010390500100CB00110CCAF011093
:1008300010B5040018230022002101F0B7F92000B0
:1008400001F0C7F910BD0000F0B5D6464F46464648
:10085000C0B58EB005000C0090461E000B2A03D9CF
:100860000C235B429C46E044DC4B1A68EFF310819A
:1008700072B6136858424341D8B28146002BF8D172
:10088000BFF35F8FD54B596002AB9A462A0083CAEB
:1008900083C383CA83C35046FFF7CAFF504601F0A3
:1008A00059F808AB9A46220083CA83C383CA83C31C
:1008B0005046FFF7BDFF504601F04CF818230022C8
:1008C0000021280001F072F91823002200212000E5
:1008D00001F06CF91E2E41D800239A46002700979C
:1008E000142300221221280001F056F90097142346
:1008F00000220021280001F04FF900971423002264
:100900000621280001F048F90097142300220C2149
:10091000280001F041F90097142300220F21200044
:1009200001F03AF90097142300221521200001F06C
:1009300033F90097142300220321200001F02CF941
:100940000097142300220921200001F025F94346D5
:100950000B2B09D89F00A24BDB599F4601239A46D7
:10096000BCE70F2353449946002300934022494695
:10097000200001F011F949469A4816F055FBB31EC4
:100980000C2B47D93300103B0D2B56D933001F3B9E
:100990000D2B5FD933002E3B0D2B48D84B46591CED
:1009A000002300930822200001F0F6F849468E4803
:1009B00016F03AFB3BE0112353449946D4E7132346
:1009C00053449946D0E7152353449946CCE7534600
:1009D00017335246002AC7D19946C5E7012353442D
:1009E0009946C1E7032353449946BDE70523534481
:1009F0009946B9E7072353449946B5E70923534479
:100A00009946B1E70B2353449946ADE70D23534470
:100A10009946A9E74F460137002300930122390088
:100A2000200001F0B9F83900704816F0FDFA3B2EAD
:100A300025D8B6006E4B9B599F464B46591C002348
:100A400000930822200001F0A7F84946664816F0F6
:100A5000EBFAECE74B46591C0023009301222000DF
:100A600001F09AF84946614816F0DEFADFE74023C4
:100A70000093002300221221280001F08DF82800A5
:100A800001F0A7F8200001F0A4F8544B1A685B6845
:100A9000BFF35F8F0021116083F310880EB0E0BCBC
:100AA000BA46B146A846F0BD1423009300230022A5
:100AB0001221280001F070F8012300930023002286
:100AC0001321280001F068F8D9E70F2300930023D1
:100AD00000221221280001F05FF803230093002375
:100AE00000221321280001F057F8C8E703230093E0
:100AF000002300221221280001F04EF80F2300935A
:100B0000002300221321280001F046F8B7E7012353
:100B10000093002300221221280001F03DF8142345
:100B20000093002300221321280001F035F8A6E7E6
:100B300040230093002300221421280001F02CF808
:100B40009DE714230093002300221421280001F0C4
:100B500023F801230093002300221521280001F02F
:100B60001BF88CE70F230093002300221421280098
:100B700001F012F80323009300230022152128001E
:100B800001F00AF87BE703230093002300221421DD
:100B9000280001F001F80F23009300230022152103
:100BA000280000F0F9FF6AE70123009300230022E8
:100BB0001421280000F0F0FF1423009300230022EA
:100BC0001521280000F0E8FF59E740230093002397
:100BD00000221621280000F0DFFF50E728D800206F
:100BE00070B001101CB0011054B0011038B00110E9
:100BF000A0B0011014230093002300221621280026
:100C000000F0CAFF012300930023002217212800CF
:100C100000F0C2FF33E70F230093002300221621C8
:100C2000280000F0B9FF03230093002300221721BE
:100C3000280000F0B1FF22E70323009300230022E5
:100C40001621280000F0A8FF0F23009300230022A4
:100C50001721280000F0A0FF11E7012300930023D3
:100C600000221621280000F097FF14230093002390
:100C700000221721280000F08FFF00E74023009397
:100C8000002300220021280000F086FFF7E614234D
:100C90000093002300220021280000F07DFF0123A3
:100CA0000093002300220121280000F075FFE6E6F2
:100CB0000F230093002300220021280000F06CFF86
:100CC00003230093002300220121280000F064FF89
:100CD000D5E603230093002300220021280000F022
:100CE0005BFF0F230093002300220121280000F066
:100CF00053FFC4E6012300930023002200212800B3
:100D000000F04AFF14230093002300220121280051
:100D100000F042FFB3E640230093002300220221AB
:100D2000280000F039FFAAE61423009300230022D4
:100D30000221280000F030FF01230093002300224D
:100D40000321280000F028FF99E60F2300930023D9
:100D500000220221280000F01FFF0323009300233C
:100D600000220321280000F017FF88E603230093E8
:100D7000002300220221280000F00EFF0F23009321
:100D8000002300220321280000F006FF77E601235C
:100D90000093002300220221280000F0FDFE14230E
:100DA0000093002300220321280000F0F5FE66E6F0
:100DB00040230093002300220421280000F0ECFED1
:100DC0005DE614230093002300220421280000F094
:100DD000E3FE01230093002300220521280000F0F8
:100DE000DBFE4CE60F2300930023002204212800A1
:100DF00000F0D2FE032300930023002205212800E7
:100E000000F0CAFE3BE603230093002300220421E6
:100E1000280000F0C1FE0F230093002300220521CB
:100E2000280000F0B9FE2AE60123009300230022E7
:100E30000421280000F0B0FE1423009300230022B8
:100E40000521280000F0A8FE19E6402300930023A6
:100E500000220621280000F09FFE10E614230093D4
:100E6000002300220621280000F096FE01230093B3
:100E7000002300220721280000F08EFEFFE50F234B
:100E80000093002300220621280000F085FE0323A2
:100E90000093002300220721280000F07DFEEEE5EC
:100EA00003230093002300220621280000F074FE93
:100EB0000F230093002300220721280000F06CFE7E
:100EC000DDE501230093002300220621280000F025
:100ED00063FE14230093002300220721280000F062
:100EE0005BFECCE54023009300230022082128006C
:100EF00000F052FEC3E514230093002300220821D2
:100F0000280000F049FE012300930023002209215C
:100F1000280000F041FEB2E50F23009300230022D9
:100F20000821280000F038FE03230093002300224C
:100F30000921280000F030FEA1E5032300930023DF
:100F400000220821280000F027FE0F230093002331
:100F500000220921280000F01FFE90E501230093E4
:100F6000002300220821280000F016FE142300931D
:100F7000002300220921280000F00EFE7FE5402317
:100F80000093002300220A21280000F005FE76E5E8
:100F900014230093002300220A21280000F0FCFD06
:100FA00001230093002300220B21280000F0F4FD10
:100FB00065E50F230093002300220A21280000F09A
:100FC000EBFD03230093002300220B21280000F0F7
:100FD000E3FD54E503230093002300220A212800A7
:100FE00000F0DAFD0F230093002300220B212800DC
:100FF00000F0D2FD43E501230093002300220A21E3
:10100000280000F0C9FD14230093002300220B21C7
:10101000280000F0C1FD32E54023009300230022A8
:101020000C21280000F0B8FD29E5142300930023CB
:1010300000220C21280000F0AFFD012300930023C3
:1010400000220D21280000F0A7FD18E50F230093D2
:10105000002300220C21280000F09EFD03230093B2
:10106000002300220D21280000F096FD07E5032350
:101070000093002300220C21280000F08DFD0F2397
:101080000093002300220D21280000F085FDF6E4E6
:1010900001230093002300220C21280000F07CFD96
:1010A00014230093002300220D21280000F074FD7A
:1010B000E5E440230093002300220E21280000F0E5
:1010C0006BFDDCE414230093002300220E21280092
:1010D00000F062FD01230093002300220F2128006D
:1010E00000F05AFDCBE40F230093002300220E21D1
:1010F000280000F051FD03230093002300220F215C
:10110000280000F049FDBAE40323009300230022E5
:101110000E21280000F040FD0F2300930023002241
:101120000F21280000F038FDA9E4012300930023DB
:1011300000220E21280000F02FFD1423009300232D
:1011400000220F21280000F027FD98E4402300939F
:10115000002300221021280000F01EFD8FE414233C
:101160000093002300221021280000F015FD012328
:101170000093002300221121280000F00DFD7EE4E1
:101180000F230093002300221021280000F004FD0B
:1011900003230093002300221121280000F0FCFC0F
:1011A0006DE403230093002300221021280000F0A7
:1011B000F3FC0F230093002300221121280000F0EC
:1011C000EBFC5CE4012300930023002210212800A3
:1011D00000F0E2FC142300930023002211212800D8
:1011E00000F0DAFC4BE4C046F0B5DE4657464E460A
:1011F0004546E0B5A3B0040088460392804F8022A4
:10120000D2000021380015F043FD7E493800FFF779
:1012100077FA11AE7C4B320023CB23C21B8813809C
:101220003300002205213800FFF7D4F82369013389
:10123000626976498C4662440092E26874493000E3
:1012400015F042F83300082205213800FFF7C2F8F4
:10125000236800936368A2686E49300015F034F883
:101260003300102205213800FFF7B4F86A4B320032
:1012700003CB03C2198811809B7893703300182226
:1012800005213800FFF7A6F864493422243104A868
:1012900015F004FD636999469B0701D11D23069350
:1012A0002369990004AA8958E26892465A1C934619
:1012B000A268571C172F12DD01229446E2448A00CF
:1012C00004A81258924509D902339B460C2B24DD01
:1012D0000123E1449B469A46002700E00027D023E3
:1012E0001B065B681B0B0122100018401A4219D024
:1012F0000137172F16DD01239C46E244890004AB19
:10130000CB589A450DD9E3445B460C2B6CDD012389
:10131000E1449B469A46002704E001239A460027B1
:10132000DDE70027002863D011AA3D4B23CB23C261
:1013300011001A880A809B788B7011AE304D3300F3
:10134000202205212800FFF745F8304B4B4400933D
:101350005B4652462E49300014F0B6FF3300282277
:1013600005212800FFF736F82368009363683A00E8
:101370002849300014F0A8FF33003022052128004E
:10138000FFF728F8244B320003CB03C219881180E1
:101390009B7893703300382205212800FFF71AF854
:1013A00018492800FFF7ACF916AE3300454607CDC3
:1013B00007C307CD07C39846039A23CA23C323CA8A
:1013C00023C363683A0041463000FFF73DFA4046C8
:1013D00000F0C0FA300000F0BDFA23B0F0BCBB460C
:1013E000B246A946A046F0BD01239A46002799E7D8
:1013F00011AA0C4B23CB23C21B8813809DE7C04648
:10140000D82600208810002090B101106C07000041
:10141000A0B10110B0B10110C0B1011004B30110AE
:10142000CCB10110DCB10110F0B5CE46474680B515
:1014300095B080468946224C8022D20000212000AF
:1014400015F026FC1F492000FFF75AF900262FE06F
:101450000023009332001C4903A814F035FF184CF8
:1014600003AB142205212000FEF7B4FF154920002C
:10147000FFF746F908AC2300424623CA23C323CA18
:1014800023C31D004A4683CA83C383CA83C3002380
:10149000320029002000FFF7D7F9280000F05AFA9F
:1014A000200000F057FAFA20400005F051FD013607
:1014B0000B2ECDD915B0C0BCB946B046F0BDC04664
:1014C000D826002088100020B0B10110F0B5D64613
:1014D0004F464646C0B594B080468A46284C802286
:1014E000D2000021200015F0D3FB26492000FFF791
:1014F00007F90023994637E00023009333004A465A
:10150000214903A814F0E0FE1D4C03AB1422052171
:101510002000FEF75FFF1B492000FFF7F1F808AC41
:101520002300424623CA23C323CA23C31D005246B5
:1015300083CA83C383CA83C333004A462900200079
:10154000FFF782F9280000F005FA200000F002FA07
:10155000322005F0FDFC01363B2ECDD9642005F08C
:10156000F7FC01239C46E1444B460B2B01D8002697
:10157000F2E714B0E0BCBA46B146A846F0BDC0469A
:10158000D826002088100020B0B1011030B5344CAE
:10159000A54401AA334B03CB03C21B78137001F09F
:1015A00021FA041E25D001222F499AA802F032FE0A
:1015B000011E25D1012201A904A802F059FE011E35
:1015C00023D101A9294815F02FFD294D04AA142182
:1015D000280002F0BDFF280015F026FD0023132B84
:1015E0001BDC234AD25C0D2A14D00A2A12D0013304
:1015F000F5E7204815F0E8FC20001F4B9D4430BD66
:101600001E4815F011FD0024F6E71D4815F00CFDED
:101610000024F1E7164A0021D1541A4D04AA1421DE
:10162000280002F095FF280015F0FEFC0023132B84
:101630000ADC144AD25C0D2A03D00A2A01D00133F5
:10164000F5E7104A0021D1540F4815F0BDFC04A85D
:1016500002F071FF00220449002002F0DBFDCBE71D
:1016600034FBFFFF84B2011014B2011068B2011004
:10167000A8100020ECB10110CC04000018B2011039
:1016800044B201109010002010BC011070B5D2B00F
:1016900015F0D6FC9C4804F003FF0C2004F042FB3C
:1016A000D0231B06802252019A62FFF76FFF0400CD
:1016B0000FF07AFC002846D10FF044FB002C4BD0F1
:1016C000924B934A934994480FF006FC0500002D75
:1016D0004AD19249924818F073F80321062004F089
:1016E0004DFA0321072004F049FA002201210620C7
:1016F00004F05CFA00220121072004F057FAFEF7FB
:10170000EBFF884E3000FEF79DFF874C8022D20011
:101710000021200015F0BCFA31002000FEF7F0FF98
:101720002C00022C2EDCA520FEF798FFFA2676006E
:10173000300005F00DFCA420FEF790FF300005F00E
:1017400007FC0134EDE7794815F03EFC784805F0D8
:10175000FFFB002052B070BD6C4B6D4A7549764856
:101760000FF0BAFB0500B2E72900744815F05CFCE5
:10177000714815F059FC6F4815F056FC6C4805F09F
:10178000E7FBE6E70EA96E4B58330A0013CB13C2F2
:1017900013CB13C203CB03C22C00072C0AD8A20020
:1017A0000EABD3582AB205215F48FEF713FE083569
:1017B0000134F2E75B495C48FEF7A2FF642005F0C4
:1017C000C7FB02215F4812F0D9FD002800D093E04A
:1017D0005C4C0123019301330093230018220E2156
:1017E00008A800F071F90321200012F0C7FD0028BD
:1017F00000D085E00123019302330093514B18225E
:101800000F2102A800F060F91824220008A916A8E8
:1018100015F044FA220002A91CA815F03FFA1CA9F1
:1018200016A8FFF701FE1CA800F094F816A800F017
:1018300091F8220008A922A815F030FA22A8FEF794
:10184000F7FF22A800F086F8220002A928A815F0C8
:1018500025FA28A8FEF7ECFF28A800F07BF8220064
:1018600008A92EA815F01AFA220002A934A815F02A
:1018700015FA34A92EA8FFF729FE34A800F06AF85B
:101880002EA800F067F8220008A93AA815F006FA79
:101890003AA8FEF7CDFF3AA800F05CF8220002A9B2
:1018A00040A815F0FBF940A8FEF7C2FF40A800F0E1
:1018B00051F8FEF7C5FD05002800FEF741FF22485C
:1018C00018F0A2FB0400182208A946A815F0E6F9B2
:1018D000182202A94CA815F0E1F94CAA46A920004B
:1018E000FFF782FC4CA800F035F846A800F032F86B
:1018F0000F4805F02DFBDFE7144815F065FB67E79F
:10190000134815F061FB75E728D800201027000068
:101910000400400090100020A8100020801A06004B
:10192000E814002088100020D826002090B2011072
:10193000B80B0000A8B20110B0B20110B8B201108B
:1019400004B3011000002050C81E0020DCB20110BA
:10195000F0B2011070470000F0B5DE4657464E4623
:101960004546E0B587B004000E001D0010AB80CBEB
:101970001B78984612AB1B789B4613AB1B789A4694
:1019800014AB1B789946016042608560C760494B83
:101990009A4200D983E0900015F086F960614346D1
:1019A00023745B4663745346A3744B46E374424905
:1019B000280012F007FD04004346002B00D071E020
:1019C000183398463D4B9D426FD00721300004F0FC
:1019D000D5F80123009332003900280012F088FD69
:1019E0001022002102A815F053F980235B02029314
:1019F000F8235B0203938023DB020493C0231B03C1
:101A00000493E31CE1011B030B430393802189052D
:101A100005912B4A13400393B6020E4305964346A5
:101A20005B06F82292051340C022D20213430493AE
:101A30008022D20513430493052004F099F815F091
:101A40007FF8204915F061F8804615F0A1F886B2BC
:101A5000002E2CD0300015F073F8011C404615F014
:101A60004EF88721C90515F064F815F091F8C0B259
:101A7000000236040643029602AB22003900280019
:101A800012F088FD2A680123BB409A4313432B6060
:101A900007B0F0BCBB46B246A946A046F0BD012047
:101AA000404279E7202398468CE706218EE7002004
:101AB000DEE7C046FEFFFF1FB8B401100000205053
:101AC000FFFFFF9F0024F44A30B587B004000AA846
:101AD00020C80078012813D002281ED0002802D088
:101AE000200007B030BD0330049001380390013866
:101AF00002900020019000952000FFF72DFFEFE7F6
:101B000003200490023803900130029000200190DD
:101B100000952000FFF720FFE2E703200490013842
:101B20000390013802900330019000952000FFF7E8
:101B300013FFD5E730B504000022002009E0042B94
:101B400005D10B0E184302E0FF230B40184300029F
:101B50000132032A12D8A3181B7C032B09D0EED81C
:101B6000012BF1D0022BF2D10D0AFF232B40184399
:101B7000EDE70D0CFF232B401843E8E730BD10B50F
:101B800043688B4207D98C0043699C46644411002A
:101B9000FFF7D0FF206010BD10B502AC24782404FC
:101BA0001B021C432243FFF7EAFF10BD70B505007E
:101BB0001400D31846689E4200D31E002800FFF789
:101BC000B9FF03E0A3006A69D0500134A642F9D8F6
:101BD00070BDF0B5050000266B68B34210D9AC6843
:101BE000E868B3006A69D7586268010010310123C0
:101BF0008B401342F8D1031D9B001F510136EBE7C8
:101C0000F0BDF0B5050001318E1A002100200DE075
:101C10005718FC080F231B1B07243C40EB5C234197
:101C20001C00012323408B4018430131B142EFD304
:101C3000F0BD00000123C361A7239B00044AC250EA
:101C40000433044AC2500433034AC2507047C046AA
:101C5000FD2800107D2800100125001010B504009B
:101C6000C36A002B04D020002C3019F0BDF810BD41
:101C7000B821034B034A4900034803F057F8F2E741
:101C8000C8B40110D0BC0110ECB4011010B50400B0
:101C9000FFF7E4FF200002F067FF10BDF0B583B04E
:101CA00006000F003F230B4040210B4369460B7099
:101CB000130E4B70130C8B70130ACB700A71052135
:101CC000684602F0E9FF4000012318436B46587153
:101CD000002405E06B46195D300002F05BFF013423
:101CE000052CF7DD0C2F0BD000240F2C0DDCFF2171
:101CF000300002F04FFF0500030606D50134F4E77B
:101D0000FF21300002F046FFEEE7280003B0F0BDEF
:101D100010B50400C36A002B04D020002C3018F04A
:101D2000E3FF10BDBA21034B034A4900034802F008
:101D3000FDFFF2E7C8B4011098BC0110ECB401102B
:101D400010B50400FFF7E4FF200002F015FF10BDFE
:101D5000F8B506000F0005F0AFF904000D1E20DBFA
:101D60001C4A0023A4185D41002D20DB002D22DB3E
:101D7000FF21300002F00EFFB84228D005F09CF998
:101D800002000B1E1DDB20002900801A994100294A
:101D9000EEDC01D10028EBD10F4802F0A1FF0020BA
:101DA00016E00E4B0E4A3F210E4813F041F9012474
:101DB00064420D4DDAE7094B094A3F21094813F007
:101DC00037F9064B064A3F21064813F031F9012046
:101DD000F8BDC04680841E0038B5011024AF011044
:101DE000A4BC011078AF0110FFFFFF7FF0B5C6461D
:101DF00000B5060088461700FE21FFF7A9FF00285E
:101E000001D000240FE0C42292001749174802F0C5
:101E100067FF17481DE043461D19FF21300002F0FF
:101E2000B9FE28700134BC42F5D3FF21300002F026
:101E3000B1FE84B22402A4B2FF21300002F0AAFE57
:101E400080B204433900404602F036FFA04203D17D
:101E5000002080BCB846F0BD02002100054802F019
:101E60003FFF0548F5E7C046ECB4011054B501103A
:101E700070ECFFFF6CB501106FECFFFFF8B50500CB
:101E80000E001700FE21FFF763FF00281CD03B0067
:101E900032000021280002F077FE002824D0FF2124
:101EA000280002F077FE84B22402A4B2FF212800A9
:101EB00002F070FE80B204433900300002F0FCFEF4
:101EC000A04209D10020F8BDCC2292000749084861
:101ED00002F006FF0748F6E703002200064907481C
:101EE00002F0FEFE0648EEE70248ECE7ECB4011013
:101EF00054B5011070ECFFFF68BC0110B4B50110BF
:101F00006FECFFFFF0B5C64600B580460C0005F04B
:101F1000D3F806000F1E29DBFA22920000232000CE
:101F2000002114F0CFFD36184F41002F24DB002F85
:101F300026DBFF21404602F02DFE0400051E0DD1D8
:101F400005F0BAF802000B1E20DB30003900801AC1
:101F500099410029EDDC01D10028EAD1002D1BD0E8
:101F6000631E9C41E0B280BCB846F0BD0D4B0E4AEA
:101F70003F210E4813F05CF8012676420C4FD6E75D
:101F8000084B094A3F21094813F052F8054B064A0D
:101F90003F21064813F04CF80649074802F0A0FE1E
:101FA000DEE7C04624AF0110A4BC011078AF0110D9
:101FB000FFFFFF7F78BC0110F4B50110F0B5D646E5
:101FC0004F464646C0B506000D0092469946089F0A
:101FD0000C2923D1002398464346022B0ADC4B46AA
:101FE000002B28D1524629003000FFF757FE04008D
:101FF000FF2833D0002F00D03C60FF2C36D02307C1
:1020000001D5172D3AD1630740D4122323424DD175
:102010004E33234259D10023984649E0FA21C900A2
:10202000FFF770FF0028D5D1E72252008049814890
:1020300002F056FECEE7002237213000FFF72EFED9
:10204000FA21C9003000FFF75DFF0028CAD1EC2259
:1020500052007749774802F043FEC3E729007648EB
:1020600002F03EFE01239C46E044B5E72200290031
:10207000724802F035FE724B98464AE02200290071
:10208000704802F02DFE704B984642E0172D04D1A7
:10209000082D08D06D4B98463BE0220029006C4883
:1020A00002F01EFEF4E70423B362F3E7694B98469F
:1020B0000D2D3AD00CDC082D31D00C2D26D1FA2173
:1020C000C9003000FFF71EFF20E0634B9846EFE7A2
:1020D000262DF4D03A2D19D1FF21300002F05AFDFF
:1020E0000506FF21300002F055FD00040543FF21E5
:1020F000300002F04FFD04022C43FF21300002F0BB
:1021000049FD04432100554802F0EAFD002F00D0AC
:102110003C604046E0BCBA46B146A846F0BD5048D7
:1021200002F0DEFD0223B362D6E72402FF21300075
:1021300002F030FD0443E9D021004A4802F0D0FD0E
:10214000E30721D4A30725D4630729D423072DD47B
:10215000E30631D4A30635D4630639D423063DD42F
:10216000E30541D4A30545D4630549D423054DD4E3
:10217000E30451D4A30455D46304C7D53A4802F00C
:10218000AFFD354B9846C1E7384802F0A9FD384B02
:102190009846D7E7374802F0A3FD374B9846D3E778
:1021A000364802F09DFD324B9846CFE7344802F0A6
:1021B00097FD2F4B9846CBE7324802F091FD2C4B10
:1021C0009846C7E7304802F08BFD2B4B9846C3E793
:1021D0002E4802F085FD1F4B9846BFE72C4802F0C1
:1021E0007FFD1D4B9846BBE72A4802F079FD00238E
:1021F0009846B7E7284802F073FD164B9846B3E7B8
:10220000264802F06DFD114B9846AFE7244802F0D6
:1022100067FD0D4B9846ABE7224802F061FD0D4B80
:102220009846A7E7204802F05BFD0B4B9846A3E7D2
:10223000ECB4011000B601101CB6011034B6011048
:1022400073ECFFFF5CB601106FECFFFF76ECFFFF55
:1022500080B601106EECFFFF75ECFFFFBCB60110FD
:10226000A8B60110CCB6011040B90110D8B60110C3
:102270006DECFFFF04B7011072ECFFFF30B70110E7
:102280005CB7011088B70110B4B70110E0B70110B6
:102290000CB8011038B8011064B8011090B80110E2
:1022A000BCB80110E8B8011014B9011010B584B021
:1022B000040000230393D52203AB009300235200B4
:1022C0000821FFF77BFE002802D1A36A022B01D070
:1022D00004B010BD039A13051B0DD52149008B4294
:1022E000F6D0D5394900034802F0FAFC0423A36272
:1022F0000148EDE76CB9011071ECFFFFF0B5C6467F
:1023000000B586B004000023009300220921FFF7E6
:1023100055FE00281BD1102202A92000FFF766FD00
:1023200000281FD17E227F2102A8FFF76AFC002827
:102330001ED0012854D0364802F0D2FC354B364A24
:102340003649374802F0F2FC0024002504E0354805
:1023500002F0C6FC002400252000290006B080BC45
:10236000B846F0BD304802F0BBFC00240025F3E77E
:102370003E22492102A8FFF744FC80462F2231214A
:1023800002A8FFF73EFC04005022532102A8FFF7E9
:1023900038FC0122824002344346581CA0400023EE
:1023A000002114F08FFB07000E00CB05440A1C43EC
:1023B0004D0A41461D4802F093FC0094019522000D
:1023C0002B001B4802F08CFC32033B0D1343320DF3
:1023D000009301923A003300164802F081FCBBE7FB
:1023E0003022452102A8FFF70CFC0100441CA40286
:1023F0000025114802F074FC220000230F4802F06F
:102400006FFCE20A00230E4802F06AFCA4E7C04613
:1024100094BA0110B0BA0110BCBC0110ED0200006A
:10242000ECB4011094B90110BCB90110E4B9011069
:1024300008BA011024BA011044BA011068BA011098
:102440007CBA0110F0B583B005000C001000190033
:10245000089E002736184F412A6A6B6A9F4228D887
:1024600025D0EB699B0743D1AB6A032B01D0430214
:102470001800089B012B1ED9002300930200122193
:102480002800FFF79BFD0700002F23D1089E002E98
:102490001AD08022920021002800FFF7EFFC0028CC
:1024A0001BD180239B009C466444013EEFE796428B
:1024B000D7D9114F0EE0002300930200112128000C
:1024C000FFF77CFD0700DFE73C00089B012B06D8E7
:1024D000002C0FD1380003B0F0BD084CF5E7002305
:1024E000009300220C212800FFF768FD0700EFE7AA
:1024F000014FEFE72700EDE775ECFFFF70ECFFFF02
:10250000F0B583B004000D0017001E00FFF7BEFBFE
:10251000089B00933A00330029002000FFF792FF48
:1025200005002000FFF70CFC280003B0F0BD000000
:1025300030B585B004000025092D16DC03AB0093EF
:102540000023002200212000FFF738FD039B012B10
:102550000BD02000FFF7F4FB0548002104F0CCFD70
:102560002000FFF793FB0135E6E7039805B030BD87
:10257000A0860100F0B5C64600B584B0050002F0A3
:10258000D9FA280002F028FB2800FFF7D1FF012824
:1025900055D12800FFF78AFE041E02D04A4B98420C
:1025A00075D10023009301223B212800FFF706FD8F
:1025B00003AB0093002300223A212800FFF7FEFC22
:1025C000041E64D1039BDB023ED5AB6A022B3FD0D5
:1025D0000023984604F070FD06000F1E3CDB3B4ACA
:1025E0000023B6185F41002F3CDB002F3EDB03AB1E
:1025F00000930123424629212800FFF7DFFC040055
:10260000039BDB070DD504F057FD02000B1E33DBE7
:1026100030003900801A99410029E8DC01D10028F6
:10262000E5D1002C2ED1039B002B2BD1AB6A022BC2
:1026300032D00123AB62264802F052FB27E0254846
:1026400002F04EFB244C22E00423AB62234C1EE03C
:102650008023DB059846BDE7214B224A3F212248D3
:1026600012F0E6FC01267642204FBEE71C4B1D4AC5
:102670003F211D4812F0DCFC194B1A4A3F211A4831
:1026800012F0D6FC0423AB62194802F029FB2000AB
:1026900004B080BCB846F0BD03AB00930023002219
:1026A0003A212800FFF78AFC041EF0D1039B5B004F
:1026B00005D50323AB620F4802F012FBE7E70E4893
:1026C00002F00EFBE3E7C04676ECFFFF80841E00BD
:1026D00088BB0110D0BA011073ECFFFF71ECFFFF53
:1026E00024AF0110A4BC011078AF0110FFFFFF7FE1
:1026F0000CBB011028BB011050BB011070B50400C9
:102700000D0011001E0002F045FA330000222900DE
:10271000200002F039FA00281CD03100280002F015
:10272000CBFA0500010AC9B2200002F033FAE9B27F
:10273000200002F02FFAFF21200002F02BFA050002
:10274000FA21C9002000FFF7DDFB002809D01F2077
:10275000284070BD064B074A0749084802F0E6FAD0
:10276000DBE7E82292000549054802F0B9FAEEE7F6
:10277000B0BB011088BC01108E030000ECB4011046
:1027800000B60110F0B587B004000E00029203936A
:102790000C9D2A0000230298039912184B41206ACD
:1027A000616A8B4232D82FD0E3699B075ED1A36A5E
:1027B000032B02D0029B5B020293012D28D000273D
:1027C000009701232A0017212000FFF7F7FB2000C4
:1027D00002F0C2F900970023029A19212000FFF7A6
:1027E000EDFB002840D180239B00FC22310020001B
:1027F000FFF784FF052822D180239B009C46664476
:10280000013D002DEFD11EE08242CDD918482BE0CA
:1028100000230093029A18212000FFF7CFFB002825
:1028200022D180239B00FE2231002000FFF766FFAB
:10283000010005280BD00F4802F052FA07E0010012
:102840000D4802F04DFAFD21200002F0A3F900230B
:102850000593200002F080F905AB009300230022CD
:102860000D212000FFF7AAFB07B0F0BD0048FBE7F1
:1028700075ECFFFFB4BB0110D8BB0110F0B583B0FD
:1028800004000D0017001E00FFF700FA089B0093DC
:102890003A00330029002000FFF774FF05002000F4
:1028A000FFF74EFA280003B0F0BD000010B503009A
:1028B000007B00280ED0D022120651681A69D14040
:1028C00001220A4059698A420AD10222D9699143F8
:1028D000D96104E00222D9699143D961013010BD68
:1028E0000322D9690A43DA6100229A62024814F08D
:1028F0006BFB0020F3E7C046FCBB011010B582B0B3
:102900000400C36A002B37D02000FFF7A7F920008E
:10291000FFF7CCFFE3699A0732D4DB0735D50023F4
:10292000A362200002F020F92000FFF723FE002818
:1029300031D1294802F0D4F92000FFF7DFFC2062F2
:102940006162084332D0802200230093920010215C
:102950002000FFF733FB002830D1200002F0DAF826
:102960000123E2699A43E261200002F005F92000A8
:10297000FFF7CEF9E0690CE02C3003F06BFDC3E704
:102980002000FFF7C5F9E06903E02000FFF7C0F978
:10299000E06902B010BD114802F0A2F9200002F077
:1029A000EBF82000FFF7B4F9E069F2E7200002F04D
:1029B000E3F82000FFF7ACF9E069EAE7802189003D
:1029C000074802F08DF9200002F0D6F82000FFF74A
:1029D0009FF9E069DDE7C04630BC011014BC01106E
:1029E00048BC0110F8B52D4818F0FEF92C4B1B78A7
:1029F000002B4CD1002620E0206903F093F900223F
:102A00000121206903F0D2F8012322699340D022EA
:102A1000120693621EE001252B00A2689340D02786
:102A20003F067B61A06803F07DF92B00A26893400C
:102A30007B62A3689D407D61013602F08DF9B04252
:102A400010D9300002F08AF90400FFF7F3F8237B75
:102A5000002BD1D1237E002BDDD0617EA06803F056
:102A6000D7F8D8E7002502F08BF9A8420CD9280046
:102A700002F088F901F0EEFE041E01D00135F2E704
:102A8000064818F031F906E0054B01221A70034898
:102A900018F02AF901242000F8BDC046301D00209E
:102AA000C6EA002043781B020078184370470300F1
:102AB000C07800029A78104300025A78104300024E
:102AC0001B7818437047C1790902837919430902B9
:102AD00043791943090203790B43090E1B02C2789B
:102AE0001A431B0E09021943120283781343120E74
:102AF000090211431B0242781A431B0E09021943B3
:102B0000120200781043704770B5050003685C1C22
:102B10001B7818005AB2002A01DB2C6070BD1F22FE
:102B2000190091430A00C0290FD00F2219009143C8
:102B30000A00E02935D00722190091430A00F02944
:102B400033D107201840ED3A02E01F201840BF3A69
:102B5000237801343F211E008E43802E28D181012D
:102B60003F2018400843013A002AF1D17F2822D99A
:102B700080221201144BC31893421FD388235B0396
:102B800098421ED280235B029842C6D30F4BC318D3
:102B90009B010F4A13408005800D03430D481843E5
:102BA000BBE70F201840DE3AD2E701204042B5E7EC
:102BB00001204042B2E701204042AFE701204042FD
:102BC000ACE701204042A9E70028FFFF0000FFFF1B
:102BD0000000FF0300DC00D870B50300881E5A6AAD
:102BE000023A824209D99C6CDD6C5A89002300218B
:102BF00013F068FF0019694170BD00200021FBE758
:102C000070B50568046D0434D905500A0843590AA3
:102C10006A89002313F0FEFB030001E01B1A08344D
:102C20002068002803D08342F8D26068C01870BDC5
:102C300070B506000C0008001A30FFF733FF0500DE
:102C40003378032B00D070BD20001430FFF72AFF2B
:102C500000042843F7E70000F0B5C64600B58046FB
:102C60000E0008001A30FFF71DFF00282CD1357820
:102C700040239D436B1E5D00ED18AD00ED1801274C
:102C8000002403E0174A904224D101340C2C0ED8C2
:102C9000154B185D3018FFF705FF002FF2D0FF2D00
:102CA00016D86B004246D05207000135EDE7337865
:102CB0005B0611D5002F11D0FF2D11D86D004544B2
:102CC00000232B80012000E0002080BCB846F0BD2E
:102CD0000020FAE70020F8E70120F6E70120F4E7FA
:102CE0000020F2E7FFFF0000A0BD011010B50100B9
:102CF0000B2400204308C0010343DBB208780131F4
:102D00001818C0B2013C002CF4D110BD10B504005D
:102D10004278013252010020002301E001330133E7
:102D2000934209D2022BF9D0C1034008401880B267
:102D3000E15C401880B2F2E710BD70B505000C00F0
:102D400000693430FFF7B3FEA06028693830FFF720
:102D5000BAFE206161612A692123D25C1F3B1340C6
:102D6000E3710023E36170BD10B501000068002825
:102D700023D00200137801321F2B01D93A2BF9D14D
:102D80003A2B02D00E4B187810BD03781C00303C53
:102D9000E4B2092C0ED80230904202D00120404209
:102DA000F2E7303B1800012B02DD01204042EBE747
:102DB0000A60E9E701204042E6E701204042E3E7FC
:102DC000B8EA0020012304E0002207E040085B008D
:102DD000DBB2002B09D01942F6D001225040C207C5
:102DE000F4D5420801485040F1E770472083B8ED20
:102DF00070B504000D00002818D00368002B17D010
:102E00001A78002A17D08188DA88914203D00920E5
:102E100000242C6070BD587801F0F2FF03000122FD
:102E2000100018401A4209D12468F2E70920F0E79F
:102E30001C000920EDE709200024EAE7092000240E
:102E4000E7E70000F8B505000C221C4917F0AEFCBE
:102E5000061E2FD128000C30FFF729FE07000200C4
:102E60005C3AD2235B009A4225D8012040420024DC
:102E700003E00021FFF7A6FF0134BC4205D2230086
:102E8000103B032BF5D9295DF4E7C443280010302B
:102E9000FFF70DFE84420ED128005430FFF707FEE5
:102EA000802808D128005030FFF701FE802802D882
:102EB000012600E000263000F8BDC04604BD011028
:102EC00070B582B0040015001E00C36D826DAA4269
:102ED00004D1B34202D1002002B070BD21006031A4
:102EE0006078012300932A00330001F0A9FF002835
:102EF00003D0012001256D422E00A565E665EBE7B4
:102F000070B504000021017101204042C117A06585
:102F1000E1652000FFF7D4FF002867D1344BE018AB
:102F2000FFF7C0FD0500334B98420CD06023E35CF3
:102F3000EB2B12D0E92B10D0E82B0ED02D4B9D425D
:102F400052D0032070BD200060300B222A4917F0B8
:102F50002DFC0028EAD10120F4E7264B9D4239D010
:102F600020006B30FFF79EFD6D23E15C431E0342A2
:102F7000E4D180239B009842E0D3DFD80029DDD044
:102F80004B1E0B42DAD120006E30FFF78BFD00287C
:102F9000D4D07023E35C013B012BCFD820007130EB
:102FA000FFF780FD0028C9D020007330FFF77AFDBD
:102FB0007F2807D820008030FFF779FD80235B024F
:102FC0009842BBD320007630FFF76CFD0028B5D0C7
:102FD0000020B7E7082209492000B23017F0E6FBCD
:102FE0000028BDD10020ADE70220ABE70420A9E70F
:102FF0005E02000055AA0000D8BC0110E4BC01101C
:10300000F0B5DE4657464E464546E0B589B0050068
:103010000C0000220023FFF773FF022804D000D920
:1030200084E0002C00D181E0464BEB5CEE2B0FD00E
:103030000026032E61D82B0060333001C730FF30EB
:103040001818FFF734FDB30004AAD0500136F0E79A
:10305000012200232800FFF733FF002865D16023F9
:103060009A46AA445046FFF7EDFE002865D0280096
:10307000B030FFF71CFD83462800A830FFF723FD82
:103080000090019100230393A8461D00A14600E093
:1030900001355D452FD2EC01660A0027009A019B9D
:1030A00092197B414046FFF70BFF002847D1813042
:1030B000FF300440534618191022234917F076FBBD
:1030C0000028E5D1039B01330393200020305044B6
:1030D000FFF7F9FC02000B004046FFF711FF4B46DB
:1030E000002B01D1012821D94B46002BD0D0039BC6
:1030F0009945CDD11AE0032018E0002C01D0661EBE
:103100000CE026000AE000232800FFF7F9FE002C5F
:103110000CD101280AD90136032E07D8B30004AA1E
:103120009A58002AEFD10320F1E7042009B0F0BC3F
:10313000BB46B246A946A046F0BD0320F6E70420F0
:10314000F4E7C0462202000090BD0110F0B5DE4653
:1031500057464E464546E0B589B00D0000230B604A
:10316000FFF702FE002800DAE9E18000BE4BC458F8
:10317000002C00D1E5E12C602378002B08D060788A
:1031800001F03EFE01231D000540034200D1DBE1BA
:1031900000232370607801F03EFE01231D000540EE
:1031A000034200D0CFE100212000FFF729FF0428CF
:1031B00000D1D1E1012800D9D0E1A26DE36D0092E8
:1031C0000193012800D1EEE020006B30FFF76AFC8C
:1031D00080239B00984200D0D8E120007630FFF792
:1031E00061FC061E04D120008430FFF760FC06005D
:1031F000A6627023E75CE7707B1EDBB2012B00D96F
:10320000C6E1774302976D23E75C6781002F00D109
:10321000C0E17B1E3B4200D0BEE120007130FFF7D1
:1032200041FC80460300049020811B0700D0B5E1DB
:1032300020007330FFF736FC8146002804D12000BF
:103240008030FFF734FC814620006E30FFF72AFC07
:103250008346002800D1A3E1029A5A4443461B0941
:103260009BB290469844C14500D29BE14B464246F2
:103270009B1A99463900180013F08EF8B94500D210
:1032800092E17A4B984200D8EAE000239A46784BC4
:10329000984201D802239A46764B984200D8EDE036
:1032A0005346002B00D0EBE00D254DE101333F2BC1
:1032B00004D8E21860321278002AF7D03F2B00D8E9
:1032C0004EE12000C830FFF7EDFB80235B00984201
:1032D00000D047E1343BE35C092B00D044E12000FF
:1032E000A830FFF7F0FB009E019F36184F412000E9
:1032F000B430FFF7DCFBA062CE23E35C9946E370B9
:10330000012B00D032E1CC33E25CCC3B93409BB24A
:1033100098466381002B00D12AE12000BC30FFF7E2
:10332000C6FB8246544B984200D923E10300023386
:103330006362009A019B226363632000B830FFF749
:10334000B6FB0200002300980199801859410A0039
:10335000010002910392A164E2642300B0331800DB
:10336000FFF7A5FB020000230098019912184B41BA
:10337000A263E3634046514648430200002302989B
:10338000039912184B41BB4211D80ED02000C03017
:10339000FFF78DFB20640023636400270026B046FE
:1033A0002600AA460DE00B2381E7B242EED90D2597
:1033B000CAE0F31960331B78812B1CD02037FF053E
:1033C000FF0D002FF5D17389434500D8D4E0316C4F
:1033D0003000FFF701FC4446002502000B001219E3
:1033E0006B413000FFF76CFD002800D0C6E00123E0
:1033F0009C46E044DDE73400603638001430301875
:10340000FFF755FB0700012800D8B9E0636A834243
:1034100000D8B7E06089B91E41430A000023A06CC0
:10342000E16C12184B4122656365B0462600FC0929
:103430000025B26BF36B12196B413000FFF740FDB2
:10344000002800D0A0E07F30384080004044FFF7E3
:103450002EFB431C6ED00137B842E8D00D2573E037
:1034600003239A4613E7C046FC1E0020F5FFFF0F1A
:10347000F5FF0000F50F0000FDFFFF7F01239A46D6
:10348000831C99466362009A019B226363635846DA
:1034900000218018594102000B0006920793A26395
:1034A000E363424600230098019912184B41A2643D
:1034B000E3645346032B27D0049B002B00D179E013
:1034C000029A00230698079912184B4122646364FC
:1034D0005346022B2BD04B465B004B445B0801222A
:1034E00049460A409B18354A944663445B0AB342F6
:1034F00062D853462370324A138801339BB213803B
:10350000E380002363611FE020008A30FFF7CAFADE
:1035100000284BD1049B002B4AD120008C30FFF7B0
:10352000C6FA2064002363644B469B00DBE74B46EE
:103530005B00D8E73400554604239A46D9E70B25AB
:1035400002E00C2500E00325280009B0F0BCBB46D2
:10355000B246A946A046F0BD0125F5E70D25F3E7E3
:103560000D25F1E70D25EFE70D25EDE70D25EBE73F
:103570000D25E9E70D25E7E70D25E5E74D46E3E7EE
:103580000D25E1E70D25DFE74D46DDE70D25DBE7FE
:103590000D25D9E70D25D7E70D25D5E70D25D3E76F
:1035A0000D25D1E70D25CFE70D25CDE70D25CBE77F
:1035B0000D25C9E70D25C7E70D25C5E7FF0100006B
:1035C000A4EA0020F8B506000C000568012900D81F
:1035D000B5E06B6A8B4200D8B3E02B78032B77D031
:1035E0001BD8012B45D0022B15D10A0A0023A86B4A
:1035F000E96B12184B412800FFF762FC002800D04D
:10360000A4E0280060306400FF256D002C40001904
:10361000FFF748FA94E0012092E0042B27D141699A
:10362000006903000B4302D0B368002B03D1F37988
:10363000002B00D090E0B368E71A01225242D31762
:1036400012184B41D905500A0843590A6A890023C8
:1036500012F0E0FEF379022B51D0032B54D0022B51
:1036600000D17DE0F369002B53D0404868E0012091
:1036700066E04E087618720A0023A86BE96B1218F0
:103680004B412800FFF71CFC002802D001204042DB
:1036900056E0771CF305DB0DEB1860331E787A0AD1
:1036A0000023A86BE96B12184B412800FFF708FCB8
:1036B000002848D1FF05FF0DED196035287800027C
:1036C0003043E30701D500093AE00005000D37E07B
:1036D000CA090023A86BE96B12184B412800FFF7B9
:1036E000EFFB002835D128006030A400FE256D00D6
:1036F0002C400019FFF7DBF90001000920E08742A8
:10370000ABD82BD0601C1BE0B269BA42A7D9601CB1
:1037100016E0E2090023A86BE96B12184B41280060
:10372000FFF7CEFB00281DD16035A000FE24640009
:1037300020402818FFF7BBF94000400800E00120B6
:10374000F8BD0120FCE701204042F9E7012040429A
:10375000F6E701204042F3E70120F1E70348EFE7F5
:103760000120EDE701204042EAE7C046FFFFFF7F6E
:10377000F0B583B0040001910568066B20362B7804
:10378000042B24D080239B03B34203D800220023C0
:10379000A263E363A26BE36B1100194344D0F1050C
:1037A000CF0D00290CD10120002112184B41A2633A
:1037B000E363616B002913D173092A89934209D20B
:1037C00026636035EF192764002003B0F0BD802325
:1037D0005B05D9E700220023A263E3630330F4E72B
:1037E000730A6A89013A1A42EAD12000FFF7EAFE19
:1037F000010001281AD9431C1AD06B6A834206D9EA
:1038000060632800FFF7E8F9A063E163D8E7019B54
:10381000002B03D100220023A263E36300220023D4
:10382000A263E3630420D0E70420CEE70220CCE7C4
:103830000120CAE7F0B5CE4600B507000D000368C9
:1038400099461B78042B33D080239B03AB424DD980
:10385000EB064DD13D63BC68002C07D14B461B786D
:10386000022B03D94B461C6C0023FB71002C22D188
:103870006B094A46128993423CD24B461A6C5B6CE8
:10388000BA63FB637C63BA6BFB6B1100194339D0DD
:10389000680A002112184B41BA63FB634B46603340
:1038A000ED05ED0D5D193D64002080BCB946F0BD0D
:1038B00080235B05CAE74B465E897602B5420ED38C
:1038C00021003800FFF77EFE0400431C14D00128BD
:1038D00014D94B465B6A834212D9AD1BEEE7210037
:1038E0004846FFF779F9B863F963CBE70220DCE7D4
:1038F0000220DAE70220D8E70120D6E70220D4E749
:103900000220D2E70220D0E7F0B5C64600B5050098
:1039100000680669AA6BEB6BFFF7D2FA041E04D1AC
:10392000296C0B78852B04D00224200080BCB8467B
:10393000F0BD2022300013F0B1F9737801335F013C
:103940003A00603A80239B009A425DD8002128000B
:10395000FFF70EFF040004280ED00028E5D1AA6B63
:10396000EB6B2868FFF7ACFA041EDED1296C0B78EC
:10397000C02B03D00224D8E70224D6E73000203041
:10398000202213F08BF92323F05C2C300F2112F04E
:1039900003FD4001B84239D84023984606E002248E
:1039A000C3E720239C46E04447451DD90021280059
:1039B000FFF7DEFE04000428F1D00028B5D1AA6B81
:1039C000EB6B2868FFF77CFA041EAED1296C0B78EC
:1039D000C12B1DD1A033FF339845E2D24346F018E6
:1039E000202213F05BF9DCE798239B0098459CD8D4
:1039F0003000FFF78BF90500B01CFFF753F8854244
:103A000000D192E7022490E702248EE702248CE79B
:103A100002248AE710B504000B6803600B6A836018
:103A20004B6AC371FF234A6A9A4313000022036161
:103A30004261C261896A0165FFF7FCFE002800D07F
:103A400010BD2000FFF760FFFAE7F0B5D6464F46FD
:103A50004646C0B5050088460668FF2399469A4643
:103A6000042407E0852B2BD000212800FFF780FEDF
:103A7000041E68D1AA6BEB6B1100194363D03000B0
:103A8000FFF71EFA041E5ED1296C0B78002B59D06B
:103A90003278042AE6D0CA7A3F200240AA71E52B88
:103AA00047D02E2B48D01F381700874338000838DE
:103AB00007007842784140450FD0FF239A46D3E76C
:103AC0002B6B2B652800FFF71FFF041E3BD13369CA
:103AD0001A793F231340AB7135E00F2A1DD15A06E6
:103AE00006D54A7B9146402293432A6B2A659A4623
:103AF000534502D0FF239A46B6E74B7B4B4502D095
:103B0000FF239A46B0E7F068FFF7A6F8002816D022
:103B10005746013FFBB29A46A6E75346002B04D115
:103B20000800FFF7E3F848450DD001235B422B6501
:103B300009E0FF239A4697E7FF239A4694E7FF237D
:103B40009A4691E70424002C03D000220023AA63A4
:103B5000EB632000E0BCBA46B146A846F0BD0000C9
:103B6000F0B5DE4657464E464546E0B585B00700FF
:103B700089460B6803930368DD68002405E0FE2C8A
:103B800000D971E16300EE52013403A8FEF7BCFFD7
:103B9000431C00D166E180235B02984203D363009B
:103BA000020CEA52013486B21F2E0ED92F2E0CD0F1
:103BB0005C2E0AD07F2EE2D80004010CAC4816F02F
:103BC000E1FE0028DBD00620E0E01F2E17D80423FA
:103BD00098464B46039A1A60012C1ED0022C3BD10A
:103BE000A44BE3185B005B5B2E2B35D1A24BE31893
:103BF0005B005B5B2E2B2FD115E001330393039BFE
:103C00001A782F2AF9D05C2AF7D01F2A02D900236C
:103C10009846DEE704239846DBE7964BE3185B0003
:103C20005B5B2E2BDAD16300ED1800232B8004E0C0
:103C30002021FA184432117001330A2B03D8A34211
:103C4000F6D22E21F5E7FB184433202241461143DA
:103C5000197000209AE0013C002C07D0854BE31836
:103C60005B00EB5A202BF6D02E2BF4D06300EB1820
:103C700000221A80002C00D1F8E0002600E0013676
:103C800073005B5B202BFAD0002E01D12E2B06D1C6
:103C9000032342461A43D3B2984600E0013C002C6D
:103CA00005D0744BE3185B005B5B2E2BF6D138001C
:103CB00044300B22202112F0EBFF08239B46002307
:103CC00001939A46731C99467600AE5B002E2FD066
:103CD000202E1AD02E2E16D0019B5B451CD24C45AF
:103CE0001AD07F2E69D8FF2E00D882E05B46013BB8
:103CF000019A934200D873E0019A531C310ABA1812
:103D00004432117084E09C42E6D0032342461A43B9
:103D1000D3B298464E46D5E75B460B2B3DD04C457B
:103D200004D0032342461A43D3B298464C453AD2B4
:103D30004423FB5CE52B00D18BE05B46082B00D1D4
:103D40008BE00C23524613400C2B03D0032313406B
:103D5000032B04D1022342461A43D3B2984643466A
:103D60009B070FD45346DB0704D5102342461A4362
:103D7000D3B2984653465B0704D5082342461A43FC
:103D8000D3B298464F234246FA54002005B0F0BC07
:103D9000BB46B246A946A046F0BD032342461A439D
:103DA000D3B29846C4E753469B00DBB29A4626003E
:103DB0000B239B46033B019384E7022342461A43AD
:103DC000D3B29846B621FF31300000F087FC0600E0
:103DD000030600D487E77F231840284B1E5C82E748
:103DE000032342461A43D3B298464E465B4601939C
:103DF00068E7002E05D03100214816F0C3FD0028E9
:103E00000DD0032342461A43D3B29846019B5F2646
:103E10005A1C0192FB1844331E704E4652E7330081
:103E2000413B9BB2192B04D8022352461A43D3B20A
:103E30009A463300613B9BB2192B08D801235246A6
:103E40001A43D3B29A46203EB6B2019BE0E7019BEB
:103E5000DEE7A13B0522FA546FE753469B00DBB235
:103E60009A466EE7062091E706208FE706208DE749
:103E7000F0BC0110FFFFFF7FFEFFFF7F10BD0110B0
:103E8000FCBC011070B5002412E000F049FC83B2C4
:103E9000E2036408A418A4B2FF2210402418A4B2BC
:103EA000E2036408A418A4B21B0AE418A4B2280010
:103EB000851C00880028E8D1200070BDF0B5D646EA
:103EC000474680B583B080460F0008001A30FEF7E1
:103ED000E9FD002837D13B783F263340013B5E00A7
:103EE000F618B600F6180124002505E000202BE0A6
:103EF0001C4A90422DD101350C2D18D81A4B585D13
:103F00003818FEF7CFFD0190002CF1D0FF2EEDD830
:103F100000F006FC0400731C9A4676004346F05AF3
:103F200000F0FEFB8442E1D1019C5646E3E73B787A
:103F30005B0610D5002C10D076004346F35A002BB8
:103F40000DD1012000E0002003B0C0BCBA46B0464D
:103F5000F0BD0020F8E70120F6E70120F4E700209B
:103F6000F2E7C046FFFF0000A0BD0110F8B5DE4635
:103F700057464E464546E0B5050007680021FFF765
:103F800059FC041E00D0B0E03B78042B07D001237D
:103F90005B422B650133FF33994698464CE0F86845
:103FA000FFF770FF834627E038694044FEF77AFD4B
:103FB00000F0B6FB814653465B00FA68985A00F061
:103FC000AFFB814510D1013EF6B202239C46E0448E
:103FD000013B9C46E244002E06D04346DB06E3D17B
:103FE00002239C46E044DFE7002E05D153465B00E8
:103FF000FA689B5A002B78D000212800FFF725FD96
:10400000041E72D13E6930002430FEF74BFD584546
:10401000F2D12323F65C00239A4640339846DAE730
:1040200001235B422B650133FF33984600212800B2
:10403000FFF79EFB041E58D1AA6BEB6B3800FEF70E
:104040003FFF041E51D12E6C3278002A4CD0F17AF9
:104050003F230B40AB71E52AE2D0090701D50F2BB6
:10406000DED10F2B1AD04346002B04D13000FEF7CF
:104070003DFE484539D04F23EB5CDB0707D42900D0
:1040800044310B22300016F091FB00282DD0012383
:104090005B422B650133FF339846C7E74033EB5C47
:1040A0005B06C3D4530606D5737B994640239A43D7
:1040B0002B6B2B659046424502D0FF239846B5E70F
:1040C000737B4B4502D0FF239846AFE73100F86879
:1040D000FFF7F4FE002804D04346013BDBB29846CC
:1040E000A4E7FF239846A1E704242000F0BCBB46C8
:1040F000B246A946A046F8BD70B598B0040001913B
:1041000006680B782F2B06D05C2B04D07369836074
:1041100009E001330193019B1A782F2AF9D05C2A18
:10412000F7D00023A3600023E3613378042B0CD085
:10413000019B1B781F2B3BD84F238022E254002188
:104140002000FFF777FB050048E0A368002BEFD0C5
:10415000B3692362F3696362336AA362210002A830
:10416000FFF758FC051E39D130693830FEF79FFC47
:1041700020610023636121333269D25C1F3B13400D
:10418000E371D5E753073ED5050027E053073CD43C
:10419000A379DB063BD53378042B22D03300603380
:1041A000226BD105C90D59183000FEF741FDA06002
:1041B00001A92000FFF7D4FC051E0FD12000FFF756
:1041C000D5FE4F22A25C0028E0D0042819D1930626
:1041D000D8D55307ECD54F238022E254280018B0DD
:1041E00070BDA3682362FF2322699A431300E2791A
:1041F00013436362236DA36221003000FEF79DFD2F
:10420000D6E70500EAE70525E8E70500E6E7052526
:10421000E4E7000030B585B00190009114000391EF
:1042200003A8FEF7A1FD00281EDB83000F4A9A5861
:10423000002A03D000210D4D59511170019B002B14
:1042400007D058700023019A13708000074A019B21
:104250008350002C02D1200005B030BD002201A9FE
:104260006846FEF773FFF7E70B20F5E7FC1E00201A
:10427000F0B5C64600B59AB0051E019100D168E0C0
:1042800001261640320003A901A8FEF75FFF041EB5
:1042900008D0002C01D000232B6020001AB080BC75
:1042A000B846F0BD039B04938C20C00000F00EFACA
:1042B000071E50D0039BD8608022920082181A619A
:1042C000019904A8FFF718FF041E07D104AA4F2381
:1042D000D356002B39DB9379DB0638D4002C20D160
:1042E00003980378042B20D0149B98461900FEF7FE
:1042F0009FFCA86040461C30FEF7D9FB28610023D4
:104300006B6100232B65039A2A60D288AA80302231
:10431000AE540132AB5400220023AA64EB64AA63BA
:10432000EB63380000F0D6F9B3E704AA069B2B62D2
:10433000FF23089999430B00D1790B436B62189BBB
:10434000AB622900FEF7F9FCDBE70624E9E7042469
:10435000E7E70924A1E711249FE7F0B5DE465746B9
:104360004E464546E0B58DB004008B4690469946D2
:1043700000234A4613600BA9FEF73AFD031E059081
:1043800000D0C1E03133E35C0593002B00D0BBE0EB
:104390003033E35CDB0700D4CAE022696369A06BB9
:1043A000E16B121A8B414146002B00D0BAE09142DA
:1043B00000D8BAE05F4616005AE0216D002903D00C
:1043C0002000FEF71DFC68E0216C2000FFF7FAF8E2
:1043D00063E031230222E2542F3B059394E0312322
:1043E0000122E254303B05938EE031230222E25455
:1043F0002F3B059388E06D0228E0E36CA06C0899E0
:10440000099A884201D193420CD02100543143468D
:10441000587801230093089A099B00F011FD0028A9
:1044200000D079E0089A099BA264E364A36BD905E4
:10443000C90D8025AD006D1AAE4200D235002300B3
:10444000543359182A00380012F028FC761B4B46CA
:104450001B685B194A4613607F190295002303937A
:10446000A26BE36B0298039912184B41A263E363BA
:10447000002E49D0A26BE36BD105D7D1D805510AE4
:1044800001430B984089013805000D40AA460842B7
:1044900008D11100194390D1A068012899D9431C73
:1044A0009DD020640B9B9846216C1800FEF794FB6E
:1044B00002000B000100194397D0514606910021DC
:1044C0000791069807998018594108900991750A33
:1044D00080239B009E4290D353465B1942465289EB
:1044E000934201D95346D51A434658780095089A05
:1044F000099B390000F0A4FC002800D17BE73123A0
:104500000122E254303B059305980DB0F0BCBB4648
:10451000B246A946A046F0BD31230122E254303B09
:104520000593F1E75F464646A2E75F4646469FE7AA
:1045300007230593E8E710B582B0040001A9FEF750
:1045400057FC002801D10023236002B010BD0000F9
:10455000F0B5D6464F4680B585B0019091460B1F09
:104560009A460600002713E01F241C4028E0D13B98
:104570001C40022528E0E93B1C4003252AE07F2C53
:1045800054D8731C347001370A2C00D18FE01E0000
:10459000574500DB8CE002AB012203A94846FFF738
:1045A000DCFE029D012D00D082E003AB1B781C00D5
:1045B0007F2BE4D91F2219009143C029D4D00025B4
:1045C000F0232340E02BD2D0F8232340F02BD2D08D
:1045D000002DDDD002AB2A0003A94846FFF7BDFE3F
:1045E000029BAB4264D100230293029B03AAD15CDD
:1045F0003F22080090430200802807D1A401413ADD
:104600000A40144301330293AB42EED3029BAB4208
:10461000BED17F2CBCD9802212012B4BE3189342D0
:10462000B6D388235B039C42A9D3B1E780231B0147
:104630009C420ED2A2091F231A405F3B13433370E2
:104640003F232340802464421C43747002370236A7
:104650009EE780235B029C4212D2220B0F231A405A
:104660002F3B13433370A3093F210B40802252425A
:10467000134373700C402243B2700337033687E74D
:10468000A20C07231A40173B13433370210B3F2220
:10469000114080235B4219437170A10911401943F5
:1046A000B17014402343F3700437043670E71E00E2
:1046B00000233370002F05D0019805B0C0BCBA4666
:1046C000B146F0BD0020F8E70028FFFF10B512F05A
:1046D000AFFA10BD10B512F0CFFA10BD7F2801D887
:1046E00080B2704780235B02984215D2B623FF3315
:1046F00099420FD00020F4E701339BB27F2B04D8FE
:104700005A0006498A5A8242F6D180331800FF23A4
:104710001840E6E70023F1E70020E2E784C001103B
:10472000F0B580235B02984227D286B280235B01DA
:104730009E4201D2204B02E0204B00E02B001A8861
:10474000002A19D0964217D31D1D59880C0AFF2341
:104750000B400104090C9F18B94204DB002CEDD179
:104760005B00EB18EBE7082C06D8A400144B1B5990
:104770009F468A1A5200AE5A3000F0BDB21A012389
:104780001A40B61AB6B2F7E7103EB6B2F4E7203ECA
:10479000B6B2F1E7303EB6B2EEE71A3EB6B2EBE79C
:1047A0000836B6B2E8E7503EB6B2E5E7054B9C46A0
:1047B0006644B6B2E0E7C046D4BD0110C8BF0110E0
:1047C000B0BD0110A0E3FFFF70B50500002400E0BC
:1047D000013400F0D5FAA04209D9200000F0D2FA45
:1047E000C369AB42F4D1200000F0CCFA00E0002015
:1047F00070BD000010B50400836B002B04D02000B6
:10480000383016F0F1FA10BD034B044A7F210448FA
:1048100000F08CFAF3E7C04668C2011078C30110BB
:10482000A8C1011010B50400836B002B04D0200038
:10483000383016F059FA10BD034B044A832104485E
:1048400000F074FAF3E7C04668C201106CC30110AF
:10485000A8C1011070B504007F4816F0C5FA2C23DA
:10486000E35C002B00D0BBE0A36B002B00D1BCE0CD
:104870002000FFF7BFFF200030300122002101F0AF
:10488000D1FD7649206815F01DF8206802680721DF
:104890005140CF220A4080235B0103431A6001216B
:1048A000606801F06BF90121A06801F067F901214E
:1048B000E06801F063F9237D002B00D09AE000222C
:1048C0000121606801F072F901200FF0DDFEA061A6
:1048D00001200FF0D9FEE061A269614B0C2A00D9DA
:1048E00091E060490B40D20213430C229343043AF7
:1048F00013435D4A13405D4A13405D4A1340012251
:1049000013435C4A1340022293432362E269544BEF
:104910000C2A00D97DE053490B40D20213430C22EC
:10492000934308210B4350490B4050490B405049D9
:104930000B4001210B434F490B4002218B43636223
:10494000216A91432162934363624B4B22689A42EE
:1049500065D010223F2A64D8484B216A0B40D2030D
:10496000134323622023226A9A432262424B226825
:104970009A425CD011223F2A5BD8404B616A0B40BF
:10498000D203134363621023626A9A4362623C4B10
:104990001B78002B53D00C253A4B1B78002B50D0A2
:1049A00080223949280001F095FA354B1B78002BFD
:1049B0004CD00123E2699340344A1360012128005E
:1049C00001F034FA192001F0ADF9D0231B06802242
:1049D00092045A622C230122E2542000FFF722FFA6
:1049E0001D4816F081F9012070BD2000383001F01B
:1049F00031FD3DE7617DA06801F00AF9A17DE06825
:104A000001F006F95BE7224B224AC321224810F04D
:104A10000FFB1F4B1F4AC3211F4810F009FB122236
:104A200098E71E4B1E4AB5211B4810F001FB1322CC
:104A3000A1E71A4B1A4AB521174810F0F9FA0B25CD
:104A4000AAE71149280001F01BFAAEE70123E26949
:104A50009340144A1360B1E7381D0020A08601007E
:104A600010801F00FF87FFFF3FF8FFFFFFFFBFFF22
:104A7000FFFFDFFFFFFF7FFF00000440FF7FE0FF3D
:104A8000C7EA0020BF100020C100002014240050FD
:104A90008CC2011040C30110ACC20110F4C201105D
:104AA00018C301100424005000B583B001238268AC
:104AB0009340D0221206536180239B0493616B467E
:104AC000D91DFF230B7043681868012216F044F9C2
:104AD00003B000BD10B582B0012382689340D0249A
:104AE0002406A3616B46D91DFF230B704368186829
:104AF000012216F031F980239B04636102B010BDDE
:104B000010B54068FFF776FE10BD10B54068FFF79E
:104B100089FE10BD10B543681969186814F088FE45
:104B200002000249024812F07FFA10BD0CC40110C5
:104B300084C3011010B543681868044914F078FE66
:104B400002000349034812F06FFA10BD801A0600F4
:104B5000F4C3011084C3011010B50400FFF7A4FFD3
:104B60002000FFF7B7FF10BD10B50400FFF7C8FF26
:104B70002000FFF7AFFF10BD10B50400FFF794FF52
:104B80002000FFF7C2FF10BD10B5406816F014F901
:104B900010BD000000B585B00B006A46D11D0B703A
:104BA0000F226A44FF2313704068FE3B16F004F99D
:104BB000002804D00F236B44187805B000BD034BC8
:104BC000034A6121034800F0B1F8F3E7A0C30110E4
:104BD00040C40110A8C30110F0B585B0060081687B
:104BE000D02212065768CF4001231F408B405361EB
:104BF0000A22FF2101A812F04BF802F05DFA04002E
:104C00000D1E26DBFA2292000023A4185D41002D20
:104C100025DB002D27DB0A23002201A93000FFF746
:104C2000B3FF02F049FA02000B1E22DB200029002C
:104C3000801A99410029EEDC01D10028EBD1B2683D
:104C400001239340002F1AD0D0221206536105B0E1
:104C5000F0BD0D4B0D4A3F210D4810F0E9F901243C
:104C600064420C4DD5E7084B084A3F21084810F034
:104C7000DFF9054B054A3F21054810F0D9F9D0224C
:104C800012069361E3E7C04624AF011028C4011067
:104C900078AF0110FFFFFF7F10B504000023002054
:104CA00005E04000E25C5040024A105C01338B4258
:104CB000F7DB10BD50C6011070B5060000220020C1
:104CC00009E00402030AB05C43405B00034D585FF7
:104CD000604080B201328A42F3DB70BD50C40110E3
:104CE0000FB430B5C3B046AC20CC00230293FC22F5
:104CF000002103A811F0CCFF0194802123002A0099
:104D0000490002A811F0F4FA02A9064812F08CF941
:104D1000054B1B68986814F03FFF43B030BC08BCDB
:104D200004B0184750C70110F014002010B582B02D
:104D30000C001900009223000200054812F074F9DB
:104D4000044B1B68986814F027FF72B600BEFDE79D
:104D500054C70110F01400200120704710B5040062
:104D6000FFF7FAFFA04207D3A00000190301C01803
:104D7000C000024BC01810BD0020FCE7C01000208E
:104D80000120704710B50400FFF7E6FFA04203D3EF
:104D9000A001024C201810BD0020FCE76813002081
:104DA000124B984218DC124B984218DA114B984279
:104DB00017D006DD104B9C46604401280AD803201A
:104DC0000CE00E4B9C466044012801D8032005E00E
:104DD000012003E0012001E0002804D170470420F5
:104DE000FCE70220FAE70120F8E7C04676ECFFFF77
:104DF00075ECFFFF72ECFFFF8D13000090130000B5
:104E000010B5FFF7ABFF041E03D0FDF74FFD207F69
:104E100010BD0420FCE710B50400FDF7E3FD0028F9
:104E20000AD02000FFF79AFF002807D0A7239B0095
:104E3000C3589847C0B210BD0320FCE70420FAE72E
:104E4000F0B583B00E0015001C00FFF787FF0028A7
:104E50000DD0A9239B00C758089B00932A0023006C
:104E60003100B847FFF79CFFC0B203B0F0BD04208B
:104E7000FBE7000010B5064B8B4202D108F088FA20
:104E800010BD044B044A1821044810F0D1F8C04664
:104E9000B813002090C7011034C80110B0C701102A
:104EA000F8B50400204B994212D101230B7208F08F
:104EB00099FA0500431C11D11C4B186859681C4B0A
:104EC0009860D96023685B69194920009847F8BD4C
:104ED000184B194A1D21194810F0AAF802F0ECF8F5
:104EE00006000F1E10DBFA2292000023280000218A
:104EF00011F0E8FD36184F41002F0BDB002F0DDBC2
:104F00000B4B9E60DF60DDE70D4B0E4A3F210E48E4
:104F100010F08EF8012676420C4FEFE7084B094A55
:104F20003F21094810F084F8A813002078D501101B
:104F3000B8130020ECC701104CC80110B0C7011015
:104F400024AF01101CC8011078AF0110FFFFFF7FD4
:104F500010B50400094B1B78002B08D00849012329
:104F60000B722368DB6920009847012010BD02F016
:104F7000FFFC024B01221A70F0E7C046C3EA002092
:104F8000A813002010B5040003689B6903499847E3
:104F900023681B6A02492000984710BDB8130020FF
:104FA000A8130020002070477047000010B502F0E1
:104FB00083F8002906DB0BD0FA229200002311F0BF
:104FC00029FA10BD054B064A3F21064810F030F87B
:104FD000FA21890011F0E0F9F3E7C04624AF01108F
:104FE0001CC8011078AF0110083000E018000368F9
:104FF000002B03D08B42F9D1002002E001600B604E
:1050000001207047083000E018000368002B05D02D
:105010008B42F9D10B680360012000E0002070474B
:10502000043000E018000368002B03D08B42F9D154
:10503000002002E001600B6001207047043000E0B6
:1050400018000368002B05D08B42F9D10B68036070
:10505000012000E000207047F8B5060080680028B5
:1050600033D002F029F8002906DB04000D000823E4
:105070009C46B44400220CE0154B164A3F211648CA
:105080000FF0D6FF154B164A422116480FF0D0FFFD
:105090009C4663461B68002B12D0200029009E68A6
:1050A000DF68801BB9410029F2DB34003D000E4966
:1050B0000A684968724079400A43E3D06246E7E7EC
:1050C000002A03D0106803681360F8BD1000FCE7E5
:1050D00024AF0110D0C8011078AF011060C80110D2
:1050E000E8C8011084C8011078D50110F0B583B06C
:1050F000104B5C681B6800930194836804E0DC68D3
:105100009B68009301940B00002B0CD01968009C45
:10511000019D9E68DF68A41BBD41002DEFDCF2D12C
:10512000002CECD1EFE7009B019C0361446103B0CC
:10513000F0BDC04678D5011070B506000D0002E044
:105140004B68280098472800FFF786FF011EF7D11B
:105150006C6800E02468002C09D0237A002BF9D079
:10516000002323722100280063689847F2E7280093
:10517000FFF7BCFF2B696C6933607460300070BD51
:10518000034B1B6802201840431E9841C0B2704771
:1051900000C0064010B5104A104B12184B41990040
:1051A000900F0843990F504059400D4A0D4B11F094
:1051B00089FC03004A01C00E1043CA0E58405140FA
:1051C000094A0A4B11F07EFC03004A00C00F10434D
:1051D000CA0F5840514010BD157C4A7FB979379E9F
:1051E000B9E5E41C6D4758BFEB113113BB49D094AE
:1051F000F0B5C64600B584B002000B0013498C46DA
:105200001BE0614601C900908C4600210191910E7E
:105210009F010F43960100980199801979410290EE
:105220000391110C1D040D431404029803990019F5
:105230006941801A994102000B0005498C45E0D96B
:105240001000190004B080BCB846F0BD001C04205A
:10525000FF1F0420F0B5CE46474680B583B0804698
:10526000036844680093019403008068D96801E0F2
:1052700001F022FF009C019D23002B4302D103007B
:105280000B43F5D0009C019DA60FAB003343A20059
:105290002E002500AD185E416B0E9946F3019C4629
:1052A0004B46624613431F00730EEA0113431E0070
:1052B0005B0F9C46FB0064462343F20092197B413E
:1052C000009C019D60406940260A2F063E432D0A3E
:1052D000009C24062C43444035004D40070C0E042E
:1052E0003E4307047C4075404646346075604C017F
:1052F000C50E2C434001C90E0843B460F060100095
:10530000190003B0C0BCB946B046F0BDF0B5DE46EA
:1053100057464E464546E0B583B00190574B9B69D2
:10532000DB0410D5564BDA6BE0231340402B0AD038
:10533000EFF305839846019B002B0AD00023994682
:10534000002400258AE04F4B4F4A81214F480FF03F
:105350006FFE4F4B4C4A86214C480FF069FE4D4B77
:105360001868596801F04AFDEFF3108672B64A4B8F
:105370001B68002BFBD0BFF35F8F464B19685A6840
:105380008A4516D0BFF35F8F434B00221A6086F325
:1053900010885B46002B5ED13E4B1A6892465F68D0
:1053A0004346002BDBD03B4B1868596801F090FE58
:1053B000DAE7BA42E6D120002900001969412F4BF3
:1053C000DA690123134003431C000D0001F074FE51
:1053D00002000B1E23DB0A20002112184B41002B78
:1053E00023DB002B25DB2B490A604B6001994B1E08
:1053F0004B452DD1294A20235B42CB181FD411687D
:1054000099400B00126801998A4022432B431400F3
:105410001D00224B1C605D6001239B46B2E7204BC0
:10542000204A3F2120480FF003FE012252421F4B29
:10543000D7E71B4B1B4A3F211B480FF0F9FD2023E8
:1054400001981B1A1168D940536883400B43D9E770
:1054500001239B4696E701239C46E144019B994525
:1054600002D200239B4697E72000290003B0F0BC3E
:10547000BB46B246A946A046F0BDC0460000064065
:105480000080004018C9011038CA0110E0C901109D
:105490008CDD0110D81E0020300100D0781D0020C6
:1054A00024AF011020CA011078AF0110FFFFFF7F69
:1054B00010B588B03B4C20686168FFF799FE20600A
:1054C0006160FFF767FE049B5840059B01935940BC
:1054D0000490059102A800F011F902980399FFF7D2
:1054E00059FE069B01935840079B01935940069033
:1054F00007914020FFF70AFFFFF74CFE049B58403E
:10550000059B019359400490059101F0D5FDFFF7EB
:1055100041FE069B01935840079B0193594006901A
:105520000791EFF3108472B61F4B1B68002BFBD062
:10553000BFF35F8F1D4B1B78002B24D1032B09D8A1
:105540005A1CD2001A498C46624452681F2A03D062
:105550000133F3E701235B425A1C1DD0DBB2154A2D
:1055600013700133DB00124A9446634405225A60EB
:1055700004A8FFF76FFE102204A90F4811F08EFB5C
:105580000A4B01221A70BFF35F8F074B00221A608B
:1055900084F3108808B010BD084B094AE921094876
:1055A0000FF046FD601D0020300100D0CFEA002042
:1055B00000000340BCEA0020681D002014CA01104E
:1055C00058CA0110E0C9011070B586B03E4B1B7877
:1055D000002B00D16EE010223C4902A811F05EFBC6
:1055E0003B4B1C78E4B201F067FDFFF7D3FD029B53
:1055F0005840039B01935940029003910120FFF70B
:1056000085FEFFF7C7FD049B01935840059B01935E
:105610005940049005912F4B1A78531CDB002E49FA
:1056200058582E4B984248D00021FFF7B3FD029BFB
:105630001840039B0193194002900391EFF31086E9
:1056400072B6274B1B68002BFBD0BFF35F8F204B3C
:105650001B78DBB2A34213D01C4B02991A6851404D
:10566000039A019258684240029103929A68DB685B
:10567000049901914A40059901914B400492059388
:1056800002A8FFF7E7FD05000C00102202A90F4851
:1056900011F004FB0E4A13780133DBB21370BFF331
:1056A0005F8F0F4B00221A6086F3108828002100BC
:1056B00006B070BDFFF7FCFE8DE70132D2000B0093
:1056C0000021D150B0E7C046CFEA0020681D00207D
:1056D000BDEA0020BCEA002000000340FFFFFF00FD
:1056E000300100D010B5FFF76FFF10BD10B50248B4
:1056F00000F03CF810BDC04628E8002010B5082294
:10570000014911F0CBFA10BD28E8002010B500299E
:1057100001D000230AE0114B114A1F3111480FF04C
:1057200087FC00240DE03732C25401334A1E9A42EE
:105730000FD90F2B0DD85A080B4CA25CDC07F0D404
:105740000424224114000F222240092AEBDC3032CB
:10575000EAE7C0180023037010BDC04668CA0110F4
:10576000B0CA011070CA011028E8002070B588B0D6
:10577000040004AD002604960922002105A811F0BA
:1057800087FA00960922002101A811F081FA4B2323
:105790002B700D226946280015F09EFA002304E0C4
:1057A0005A1D69468A5CE2540133072BF8DD08B0C4
:1057B00070BD0000EFF3108072B6034B1B68002B26
:1057C000FBD0BFF35F8F70472C0100D0BFF35F8F1A
:1057D000024B00221A6080F3108870472C0100D021
:1057E000CB08C25C07231940012088401040431EAB
:1057F0009841C0B27047F8B506000C001500FFF7DD
:10580000D9FFE308F718F15C0722224001239340F7
:105810000B4205D1DBB20B433B70FFF7D7FFF8BD5E
:10582000210028000FF09EFCF0B583B00600019126
:1058300014001F00FFF7BEFF00E00134BC420CD88B
:10584000E308F518F35C0721214001228A401A423F
:10585000F3D1D2B21A432A7001E001246442FFF767
:10586000B5FF002C02DB200003B0F0BD019B002B34
:10587000F9D008980FF076FC70B505000C00FFF722
:1058800099FFE308EE18EA5C07210C400123A340CE
:10589000134204D09A433270FFF798FF70BD034B58
:1058A000034A2C3103480FF0C3FBC04634CC01102F
:1058B00090CC011054CC0110002307E0054A9A183F
:1058C0009200BFF35F8F0021116001331F2BF5D9C8
:1058D0007047C04640000034054A1078431CDBB2D4
:1058E0001370172B02D9130010221A707047C0468C
:1058F000D013002000B583B00100044B00931F2398
:1059000018220348FFF790FF03B000BDA0CC0110A0
:10591000EC2A002010B5010018231B8814221088DF
:10592000984710BD10B5010018231B881622108857
:10593000984710BDF0B5C64600B507000E0000251B
:105940000123984600E00135B5420AD2AC003C196B
:105950002068FFF7DFFF20600028F4D1002398467D
:10596000F1E7404680BCB846F0BD0000F8B5DE4621
:1059700057464E464546E0B505000F0092460A9A46
:1059800093424ED31A0E91461E020A9A002330000B
:10599000494610F03FFD80466C006419A4002F4B6F
:1059A0009C4664446368834200D260602B1FDBB274
:1059B0009B46012B3BD9C0239B012343802212012C
:1059C0001A60AB00264A9958002905D0506910F09A
:1059D000E3FC01300138FDD153465A0123685A4097
:1059E000E0231A4080235B0123431A605A46012AB0
:1059F00028D980239B012343802212011A60434649
:105A00006360424600233000494610F003FDAD00BC
:105A1000134B58510120F0BCBB46B246A946A046E4
:105A2000F8BD104B104A2D2110480FF001FB012F3B
:105A3000C1D1C0239B01234303221A60A368DB0763
:105A4000FCD5C9E72168794003220A401A60A268A0
:105A50000123BB401342FAD0CBE7C0460080004090
:105A6000F02A0020BCCC01100CCD0110D0CC0110CC
:105A700030B583B00C2001F0F5FEFFF781FB002864
:105A80000DD0002304E099002D4A2E4888500133A0
:105A9000092BF8D92A4B2C4A5A6203B030BD2B4B44
:105AA00000229A6701F050FF294B01221A60274B10
:105AB0005B6C012BFBD1274B03221A60234B9B6BA2
:105AC000012BFBD1013300930433234A01212348E6
:105AD00001F032FE05230093214A0121214801F003
